:1002A60075C01475B0F0E5C05404C454F0FFE5C041
:1002B600541033333354F84FFFE5B0543F4FFFE447
:1002C600F5C075B00FE5C0541033333354F84FFF03
:1002D600E5C05404C454F04FFFE5B0543F4FF4FF5B
:0702E60065395FF53C8F391B
:0102ED0022EE
:100470000510743D2FF8E6FE74302510F8A60674BA
:07048000082510F8A6072271
:10000E001202A6E510B40203751005E510C394089C
:10001E004003751008E53C64487052200402B20497
:10002E00E510C394074046E4F510B2047531FF7530
:10003E0032FF7536FF7537FFE50E75F00AA4250FF2
:10004E00F522E50975F00AA4250AF523C39522E5E4
:10005E00A0541F4480500CF5A07580FD53A01FD2F4
:10006E0001800AF5A07580FF53A01FC201E53CB4C4
:10007E00280FE4F5107531FF7532FF7536FF7537B1
:10008E00FF300464E53CB48105E4FF120470E53CE6
:10009E00B441057F01120470E53CB421057F0212C4
:1000AE000470E53CB482057F03120470E53CB44253
:1000BE00057F04120470E53CB422057F051204701E
:1000CE00E53CB484057F06120470E53CB444057F1C
:1000DE0007120470E53CB424057F08120470E53C59
:0900EE00B488057F091204702298
:10032A000A3DC0F9A4B0999282F880900830BFFFC4
:10033A00FFFFFFBFFFFF08480102040810204080AA
:10034A000824BFC0BFFFFFFFC0C0013C0001390045
:0A035A0001221401231EC101C10499
:1000F7001203657DFF7F04120369E4F5111202EE16
:100107008F3A12049C0511E511C3940A40EFE53AB2
:10011700C395225003E4F538E53AC39522400AE532
:100127003AD395235003753801E53AD39523400315
:10013700753802120487300251C2021202EE8F3A5A
:100147001203F8E53AC39522500FE4F538752E01EE
:10015700752F90FD7F05120369E53AC39522401379
:10016700E53AD39523500C753801752E00752FC8C5
:10017700120365E53AD395234010753802752E00B2
:10018700752F647D107F0512036920010E3000046E
:100197007DFE80027DFF7F04120369300398C2034E
:0501A70012000E809122
:03000B00020238B6
:10023800C0E0C0F0C083C082C0D075D000C000C08C
:1002480001C002C003C004C005C006C007053B05C5
:1002580047052DE52D7002052CE53BB4FA05753BE5
:1002680000D202E547B40605754700D203D3E52D51
:10027800952FE52C952E4008752C00752D00B200A1
:1002880012039ED007D006D005D004D003D002D0E8
:0E02980001D000D0D0D082D083D0F0D0E032A0
:10039E007DFF7F0712036974482521F8E6FD7F066D
:1003AE001203692004047424800274302521F8E6B7
:1003BE00FD7F071203690521E521C394084003E47C
:0203CE00F52117
:0103D000220A
:1003F800200422743D2538F8E6F525E53A75F00A1B
:1004080084243DF8E6F52AE53A75F00A84743D251A
:06041800F0F8E6F52B22CE
:04036500E4FD7F052F
:10036900EF24FB601214601714601C24037025E548
:10037900A0541F44808016E5A0541F44A0800EE5B8
:10038900A0541F44C08006E5A0541F44E0F5A08D89
:050399008053A01F22AB
:10048700438E805389F0758A40758CA2C28DD28CB9
:05049700D2A9D2AF2242
:0E049C0000007F057E907D47DDFEDEFCDFFA6E
:0104AA00222F
:04043C007F057E00BA
:10044000EF1FAA0670011E4A600BE4FDEDC3940C79
:0504500050EE0D80F7E5
:010455002284
:02041E00A9072C
:10042000E4FBC294E913929412043CD294E9C313FE
:0C043000F90BBB08ED7F057E00020440C4
:10045600E4FBC294ECC313FCD294309403430480AF
:0904660012043C0BBB08EBAF04CF
:01046F00226A
:1003D100C205D2947F0C7E00120440C2947F507EED
:1003E10000120440D2947F0A7E00120440A294922B
:0603F1000512043CA20508
:0103F70022E3
:1002EE001203D17FCC12041E7F4412041E7FC87EDF
:1002FE00001204401203D17FCC12041E7FBE1204E2
:10030E001E7FC87E00120440120456A9071204561E
:0B031E00EFC454F0FFE9C4540F4FFF80
:0103290022B1
:030000000201AC4E
:0C01AC00787FE4F6D8FD75814F0201F366
:1001B8000200F7E493A3F8E493A34003F68001F266
:1001C80008DFF48029E493A3F85407240CC8C33348
:1001D800C4540F4420C8834004F456800146F6DF17
:1001E800E4800B010204081020408090032AE47E7A
:1001F800019360BCA3FF543F30E509541FFEE4930C
:10020800A360010ECF54C025E060A840B8E493A3D2
:10021800FAE493A3F8E493A3C8C582C8CAC583CAFD
:10022800F0A3C8C582C8CAC583CADFE9DEE780BEB5
:010364000098
:00000001FF
