:1003C1000A38C0F9A4B0999282F88090084380401D
:1003D1002010080402010126300125080124000132
:1003E1002700C105C103C106C101C104014B32C1CE
:0303F10000C10246
:1002CE0012057712051BE4FF1204558F4B120478AA
:1002DE00120124300021C200C2AF7F0312038C8FA3
:1002EE0022D2AF12055AEF75F009A4FFAEF07C00D2
:1002FE007D0F1201C28F27C2AF1204EBD2AF3002B4
:0B030E0005C20212021712009A80C5FF
:03000B0002027777
:10027700C0E0C0F0C083C082C0D075D000C000C04D
:1002870001C002C003C004C005C006C0070542057F
:1002970023E523C394964005752300D200E542D396
:1002A70094064005754200D202120354D007D006C7
:1002B700D005D004D003D002D001D000D0D0D08256
:0702C700D083D0F0D0E0323B
:10012400C2AF2005237DFE7F04120319AF4BEF33CA
:1001340095E0FEC3E5279FEE6480F8748098500430
:100144007D108050E4FD804C7DFD7F041203193046
:100154000422AF4BEF3395E0FEC3E5279FEE6480A6
:10016400F874809850072003047DFF80027D107F7F
:1001740005120319200422AF4BEF3395E0FEC3E5CB
:10018400279FEE6480F874809850072003047D4014
:0C0194008002E4FD7F05120319D2AF22A7
:0E057700E4FD7F051203197DFF7F04020319C6
:10031900EF24FB601414601B1460222403702B8DDE
:1003290080E5A0541F4480801C8D80E5A0541F44A3
:10033900A080128D80E5A0541F44C080088D80E5FF
:0B034900A0541F44E0F5A053A01F22A9
:100354007DFF7F0712031974432521F8E6FD1F1260
:10036400031920010A74282521F8E6FD0F80097479
:10037400302521F8E6FD7F071203190521E521C385
:0703840094084003E4F52199
:01038B00224F
:10009A00200155E52775F00A84743825F0F8E6F54D
:1000AA0028E52775F00A842438F8E6F529752AFF29
:1000BA00E52675F00A84743825F0F8E6F52BE5266E
:1000CA0075F00A842438F8E6F52C752DBFE52575F8
:1000DA00F00A84743825F0F8E6F52EE52575F00A5D
:1000EA00842438F8E6F52F22E54B75F00A1201A0B0
:1000FA00AFF074382FF8E6F530E54B75F00A1201C7
:10010A00A02438F8E6F5317532FF7533FF7534FFF0
:0A011A007535FF7536BF7537BF223B
:10051B00438E805389F0758A40758CA2C28DD28C24
:05052B00D2A9D2AF22AD
:0B058500E5B0F4FF65085FF5098F0882
:010590002248
:10021700120585E50930E002B205E50930E10C2059
:100227000504B201B206300502B203E50930E21D4A
:10023700D204300618200515054BC3E54B6480949E
:10024700E34003754B63AD4BE4FF1204B8E5093097
:10025700E31DC204300618200515154BD3E54B6482
:100267008094805003E4F54BAD4BE4FF1204B822B1
:04059100D2A07F0570
:0805950000AE071FEE70F92211
:0F056800D2A1120591C2A17F05120595C2A02252
:0C059D00C2A1120591D2A17F05020595B4
:10050400C2A0A20792A17F05120595120591C2A06F
:07051400D2A17F050205954D
:0804D2001205687FA012042945
:1004DA00120591A2A19207C2A07F05120595A20753
:0104EA0022EF
:02042900AD071D
:10042B00E4FCC2A07F05120595ED30E704D2A18054
:10043B0002C2A17F05120595D2A0ED25E0FD7F0537
:09044B001205950CBC08DBC2A0EF
:010454002285
:10049B00E4FC120591ED25E0FD30A103430501C2FB
:0C04AB00A07F051205950CBC08E8AF0509
:0104B7002222
:10038C00AB071205687F901204291204DAAF03122E
:10039C0004291204DA1205687F911204291204DA76
:1003AC0012049BAB07C20712050412049BAB071285
:0503BC00059DAF0322C6
:1004B800AB05AA071204D2AF021204291204DAAF5C
:0A04C800031204291204DA02059D54
:02045500AB07F3
:100457001204D2AF031204291204DA1205687FA12D
:100467001204291204DA12049BAD0712059DAF0589
:010477002262
:10054400E4FEC297EF1392A3EFC313FFD2970EBE3C
:0205540008F0AD
:010556002282
:10053000C29300C29700D29300120544AF05120582
:0405400044C29322FC
:1003F500E4FDC29300C29700D29300120544E4FFC6
:10040500C297EDC313FD30A303430580D2970FBFF9
:1004150008EEC29300C29700D29700C2A300D2A3F0
:0304250000AF0520
:0104280022B1
:030557001203F597
:0D055A00EFC4540F53070F75F00AA42FFFD4
:010567002271
:10047800E4FD7F8E120530AD247F80120530AD2655
:100488007F82120530AD257F841205307D807F8EF6
:030498000205302A
:1004EB007F811205578F247F831205578F267F85B7
:0804FB001203F512055A8F25CA
:0105030022D5
:0300000002000EED
:0C000E00787FE4F6D8FD75814B020055A8
:1001A000C2D530F707B2D563F0FF05F030E70CB2E7
:1001B000D5F4048463F0FF05F080018430D502F4A7
:0201C000042217
:1001C200BC000BBE0029EF8DF084FFADF022E4CC21
:1001D200F875F008EF2FFFEE33FEEC33FCEE9DECEA
:1001E200984005FCEE9DFE0FD5F0E9E4CEFD22ED30
:1001F200F8F5F0EE8420D21CFEADF075F008EF2F7A
:10020200FFED33FD4007985006D5F0F222C398FD6A
:050212000FD5F0EA2207
:10001A000202CEE493A3F8E493A34003F68001F22C
:10002A0008DFF48029E493A3F85407240CC8C333E7
:10003A00C4540F4420C8834004F456800146F6DFB6
:10004A00E4800B01020408102040809003C1E47E82
:10005A00019360BCA3FF543F30E509541FFEE493AB
:10006A00A360010ECF54C025E060A840B8E493A372
:10007A00FAE493A3F8E493A3C8C582C8CAC583CA9D
:10008A00F0A3C8C582C8CAC583CADFE9DEE780BE55
:0103F4000008
:00000001FF
