:040B1C00D2A07F05DF
:080B200000AE071FEE70F92280
:0F0B0D00D2A1120B1CC2A17F05120B20C2A02285
:0C0B2800C2A1120B1CD2A17F05020B2001
:100AE100C2A0A20992A17F05120B20120B1CC2A069
:070AF100D2A17F05020B20DA
:0C0AA700AB07C2AF120B0D7F90120A0FBC
:100AB300120B1CA2A19209C2A07F05120B20A2094E
:010AC3002210
:020A0F00AD0731
:100A1100E4FCC2A07F05120B20ED30E704D2A180D7
:100A210002C2A17F05120B20D2A0ED25E0FD7F05BA
:090A3100120B200CBC08DBC2A072
:010A3A002299
:100AC400E4FC120B1CED25E0FD30A103430501C23B
:0C0AD400A07F05120B200CBC08E8AF0549
:010AE00022F3
:100A6600AB05AA07120B0D7FA0120A0F120AB3AF2D
:100A760002120A0F120AB3AF03120A0F120AB302C6
:020A86000B283B
:020A3B00AB0707
:100A3D00120B0D7FA0120A0F120AB3AF03120A0F89
:100A4D00120AB3120B0D7FA1120A0F120AB3120A6A
:080A5D00C4AD07120B28AF0520
:010A6500226E
:100A8800120AA7120B0D7F40120A0F120AB3120B9B
:0F0A98000DAF03120A0F120AB3120B28D2AF22AE
:1009E200120AA7AF03120A0F120AB3120B0D7F915C
:1009F200120A0F120AB3120AC4AB07C209120AE1A1
:0D0A0200120AC4AB07120B28D2AFAF0322BB
:1009B3000A47C0F9A4B0999282F880900856804003
:1009C3002010080402010127000140000245000035
:0E09D300C10602230000025100000254000081
:10088F00E4FD7F0512097E7DFF7F0412097E7F0242
:10089F00120A3BEF75F00AA485F023F524120AF82B
:1008AF0012066B30022B7F03120A887F031209E2B4
:1008BF00AC07E41202167B487AE179FA783F12010D
:1008CF0006E4FBFAF9783F12001512024A8E418FA7
:1008DF0042300505C2051205473004C4C204120395
:0308EF006480BD65
:03000B00020816D2
:10081600C0E0C0F0C083C082C0D075D000C000C0A8
:1008260001C002C003C004C005C006C0070553E5E9
:1008360053B40605755300D2050543E543C3943208
:100846004002D2020526E52670020525D394C4E5AA
:100856002594094008752500752600D2000544E553
:1008660044C394964005754400D20412093AD00751
:10087600D006D005D004D003D002D001D000D0D00D
:09088600D082D083D0F0D0E03222
:10066B00C3E5429524E54195235007300004D201A0
:10067B008004C200C201AE54AF557C007D02120350
:10068B0020ED4C6004D2078002C207E540B40302A0
:10069B00D206300604D2088002C208E52764016046
:1006AB006ED3E5429524E54195234002D2033003F6
:1006BB005ED3E5429524E54195235053C20305557E
:1006CB00E55570020554C3E55294E7E551648094F7
:1006DB00834012E555940FE554648094A74006754A
:1006EB00542775550FC3E5559410E554648094A7B2
:1006FB00401DE4F554F5550552E552700205519431
:10070B00E7E5516480948340067551037552E7C247
:10071B00AF30010A2007072008047DFE8059200115
:10072B000A3007072008047DFD804C30010A300792
:10073B00072008047DFC803F20010A2007073008B2
:10074B00047DFB803230010A2007073008047DFA54
:10075B00802520010A3007073008047DF980183006
:10076B00010A3007073008047DF8800B20010D20AB
:0F077B00070A2008077DFF7F0412097ED2AF22F4
:10093A007DFF7F0712097E74562522F8E6FD7F06A1
:10094A0012097EE52770057428120977E527B40194
:10095A00057430120977E527B4020574381209774D
:0C096A000522E522C394084003E4F522B6
:01097600225E
:10036400E527704DAE41AF42FC7D0A1202CB7447C3
:100374002DF8E6F528AE41AF427C007D0A1202CB8F
:100384007C007D0A1202CB74472DF8E6F529AE41B4
:10039400AF427C007D641202CB74472FF8E6547F91
:1003A400F52A752BFF752CFF752DFF752EFF752F04
:1003B400C1E5276401704DAE23AF24FC7D0A12030E
:1003C4002074472DF8E6F530AE23AF247C007D0A77
:1003D4001203207C007D0A12032074472DF8E6F5F1
:1003E40031AE23AF247C007D6412032074472FF8C0
:1003F400E6547FF5327533FF7534FF7535FF753676
:10040400FF75378CE52764026003020546753FC813
:10041400AE54AF55FC7D0A12032074472DF8E6F55F
:1004240038D3E5529400E551648094805012C3E5BA
:1004340055940AE5546480948050057539FF8019F9
:10044400AE54AF557C007D0A1203207C007D0A1255
:10045400032074472DF8E6F539D3E5529400E551AD
:10046400648094805012C3E5559464E55464809488
:10047400805005753AFF8019AE54AF557C007D64F9
:100484001203207C007D0A12032074472DF8E6F540
:100494003AD3E5529400E551648094805012C3E548
:1004A4005594E8E554648094835005753BFF8019A6
:1004B400AE54AF557C037DE81203207C007D0A1204
:1004C400032074472DF8E6F53BD3E5529400E5513B
:1004D400648094805005753CFF8012AE51AF527C0D
:1004E400007D0A12032074472DF8E6F53CC3E5525B
:1004F400940AE551648094805005753DFF8019AEDF
:1005040051AF527C007D0A1203207C007D0A120345
:100514002074472DF8E6F53DC3E5529464E5516433
:100524008094805004753EFF22AE51AF527C007D12
:10053400641203207C007D0A12032074472DF8E620
:03054400F53E225F
:070977002522F8E6FD7F07D1
:10097E00EF24FB601214601714601C24037025E52D
:10098E00A0541F44808016E5A0541F44A0800EE59D
:10099E00A0541F44C08006E5A0541F44E0F5A08D6E
:0509AE008053A01F2290
:100AF800438E805389F0758A40758CA2C28DD28C42
:050B0800D2A9D2AF22CA
:1008F20075C01475B0F0E5C05404C454F0FFE5C0EF
:10090200541033333354F84FFFE5B0543F4FFFE4F4
:10091200F5C075B00FE5C0541033333354F84FFFB0
:10092200E5C05404C454F04FFFE5B0543F4FF4FF08
:0709320065085FF5098F085D
:01093900229B
:100547001208F2E5096428702EC206E540B40306D6
:10055700200603E4F5400527E527B40212AE23AFD2
:10056700247C007D0A120320AD077F02120A66E58C
:1005770027B40303E4F527E509B4241FE527B402EC
:1005870018C206E540B40306200603E4F540E4F587
:1005970051F552F554F55580020540E50964187088
:1005A70033E527B4012CC206E540B4030620060351
:1005B700E4F54074322524F524E43523F523C3E517
:1005C7002494F5E523648094814009E4F523F52418
:1005D70080020540E50964147035E527B4012EC291
:1005E70006E540B40306200603E4F54074CE25244F
:1005F700F52474FF3523F523D3E52494FFE523641D
:1006070080947F500A7523017524F480020540E524
:1006170009B412020540E509B411020540E509B421
:1006270022020540E509B421020540E509B441026B
:100637000540E509B442020540E509B44402054016
:10064700E509B448020540E509B481020540E5091A
:10065700B482020540E509B484020540E509B4887F
:040667000205402226
:10000E000202B6E86480F8E933E83360110460F068
:10001E00ED33EC337009E8FCE9FDEAFEEBFF220458
:10002E0060DED3EB9FEA9EE99DE8C2E78CF0C2F753
:10003E0095F0400CE8CCF8E9CDF9EACEFAEBCFFB1F
:10004E0012028185D0F05804700320D5B3E80470F5
:10005E00075002B2D50202C092D5EC0460F7E4CC90
:10006E00C0E0C398F8603B94186008400DD0E0FBE8
:10007E00020298E4FBFAC9FC8028E830E406E4C9E1
:10008E00FBE4CAFCE830E305E4C9CACBFCE854073C
:10009E006010F8C3E913F9EA13FAEB13FBEC13FC47
:1000AE00D8F130F52FC3E49CFCEF9BFFEE9AFEEDEA
:1000BE0099FDD0E0FBEF4E4D4C701222DB03020295
:1000CE00BDEC2CFCEF33FFEE33FEED33FDED30E7F0
:1000DE00EB020298EF2BFFEE3AFEED39FDD0E0FB7E
:1000EE0050130BBB00030202C0ED13FDEE13FEEF27
:0800FE0013FFEC13FC02029851
:10010600EC4D6011E8497017ED33EC3304600DE4F3
:10011600FCFFFEFD22E933E8330470F80202B61252
:10012600028158046009E4CC248150062850090253
:1001360002C02840030202BDC0E0EB4A7044B98009
:1001460006D0E0FB0202ACEF4E701CBD8008EBFF50
:10015600EAFEE9FD80EBE98DF0A4FEE5F00201EF91
:10016600E9CDF9EAFEEBFFEF89F0A4FCE5F0CE89D4
:10017600F0A42EFFE435F0CD89F0A42DFEE435F091
:100186008067EF4E7005BD80D780C3EF8BF0A4ACBF
:10019600F0EE8BF0A42CFCE435F0F8EF8AF0A42CFA
:1001A600E5F038FCE433CB8DF0A42CFCE5F03BF80D
:1001B600EE8AF0A42CFCE5F038F8E433CF89F0A4FD
:1001C6002CFCE5F038CF3400CE89F0A42FFFE5F003
:1001D6003EFEE433C98DF0A42EFEE5F039CD8AF05B
:1001E600A42FFFE5F03EFEE43DFD33D0E0FB5007D3
:1001F6000BBB000F0202C0EC2CFCEF33FFEE33FE0C
:06020600ED33FD02029839
:10020C0075F020800E75F010800575F0087D007E6D
:10021C00007F003392D530D503120356EC334010D7
:10022C00EF33FFEE33FEED33FDEC33FCD5F0ED2276
:0E023C00E5F0247EA2D513CC92E7CDCEFF22B2
:10024A00EDD2E7CD33EC3392D524814006E4FFFEAC
:10025A00FDFC22FCE4CFCECDCC24E0501174FF800B
:10026A00EDC3CC13CCCD13CDCE13CECF13CF0470A8
:07027A00F030D5DE0203564F
:10028100E9D2E7C933E833F892D5EDD2E7CD33ECC3
:0702910033FC5002B2D5223C
:10029800EC30E7100FBF000C0EBE00080DBD0004C7
:1002A8000BEB6014A2D5EB13FCED92E7FD2274FF73
:1002B800FCFDFEFF22E480F8A2D574FF13FC7D80CC
:0302C800E480EFE0
:0300000002078A6A
:0C078A00787FE4F6D8FD75815D0207D190
:1002CB00BC000BBE0029EF8DF084FFADF022E4CC17
:1002DB00F875F008EF2FFFEE33FEEC33FCEE9DECE0
:1002EB00984005FCEE9DFE0FD5F0E9E4CEFD22ED26
:1002FB00F8F5F0EE8420D21CFEADF075F008EF2F70
:10030B00FFED33FD4007985006D5F0F222C398FD60
:05031B000FD5F0EA22FD
:10032000C2D5EC30E709B2D5E4C39DFDE49CFCEEF8
:1003300030E715B2D5E4C39FFFE49EFE1202CBC3A3
:10034000E49DFDE49CFC80031202CB30D507C3E49E
:060350009FFFE49EFE2267
:0E035600C3E49FFFE49EFEE49DFDE49CFC22B8
:1007960002088FE493A3F8E493A34003F68001F2E2
:1007A60008DFF48029E493A3F85407240CC8C33364
:1007B600C4540F4420C8834004F456800146F6DF33
:1007C600E4800B01020408102040809009B3E47E07
:1007D600019360BCA3FF543F30E509541FFEE49328
:1007E600A360010ECF54C025E060A840B8E493A3EF
:1007F600FAE493A3F8E493A3C8C582C8CAC583CA1A
:10080600F0A3C8C582C8CAC583CADFE9DEE780BED1
:0109E1000015
:00000001FF
