:0408E900D2A07F0515
:0808ED0000AE071FEE70F922B6
:0F08DA00D2A11208E9C2A17F051208EDC2A02227
:0C08F500C2A11208E9D2A17F050208EDA3
:1008AE00C2A0A20A92A17F051208ED1208E9C2A009
:0708BE00D2A17F050208ED45
:080895001208DA7FA012080F1F
:10089D001208E9A2A1920AC2A07F051208EDA20AD0
:0108AD002228
:02080F00AD0733
:10081100E4FCC2A07F051208EDED30E704D2A1800F
:1008210002C2A17F051208EDD2A0ED25E0FD7F05F2
:090831001208ED0CBC08DBC2A0AA
:01083A00229B
:10085E00E4FC1208E9ED25E0FD30A103430501C2D9
:0C086E00A07F051208ED0CBC08E8AF05E7
:01087A00225B
:1007A700AB071208DA7F9012080F12089DAF0312E9
:1007B700080F12089D1208DA7F9112080F12089D80
:1007C70012085EAB07C20A1208AE12085EAB071228
:0507D70008F5AF03224C
:10087B00AB05AA07120895AF0212080F12089DAF1D
:0A088B000312080F12089D0208F581
:02083B00AB0709
:10083D00120895AF0312080F12089D1208DA7FA156
:10084D0012080F12089D12085EAD071208F5AF05CC
:01085D002278
:1006BD000A42C0F9A4B0999282F8809008688040EF
:1006CD00201008040201084EFEFDFBF7EFDFBF7F8F
:1006DD0008567FBFDFEFF7FBFDFE045E7EBDDBE757
:1006ED000462E7DBBD7E0870000000000000000022
:1006FD00022F0190014101012E00C101C183C109E9
:08070D00022200010224008019
:10060000120664C2AF7F031207A78F2BD2AFC205B9
:10061000E52BC3943F5005754C028034E52BC39401
:100620003F400BE52B947F5005754C048022E52B51
:10063000C3947F400BE52B94BF5005754C0680108A
:10064000E52BC394BF4009E52B94FF5003754C087C
:10065000C2AF1203B8D2AF300605C20612020112B1
:04066000000E809F69
:03000B000204C22A
:1004C200C0E0C0F0C083C082C0D075D000C000C000
:1004D20001C002C003C004C005C006C007054DE547
:1004E2004DB40C05754D00D206052AE52A700205A9
:1004F20029FFAE29BE030BBF2008752900752A000B
:10050200B200E54125E0246EF8E6FE08E6FF052D7F
:10051200E52D7002052CC39FE52C9E400B3003088D
:10052200D207752C00752D000567E5677002056618
:10053200640A45667004F566F567AF4C7E00D3E544
:10054200679FE5669E5002D204D3E5679FE5669EEB
:100552004002C2041207DCD007D006D005D004D076
:1005620003D002D001D000D0D0D082D083D0F0D03E
:02057200E03275
:10066400E4FD7F051207727DFF7F041207721208F2
:10067400C5E4FF12083BEF75F00AA485F070F5712C
:1006840012090D7F0112083BEF75F00AA485F07280
:10069400F57312090D7F0212083BEF75F00AA48569
:1006A400F074F57512090D7F0312083BEF75F00A1B
:0906B400A485F076F57702090D2A
:1003B8002004030204B7E5416401701EE523F4FD3F
:1003C8007F04120772300712AF237801EF0880010B
:1003D80023D8FD752200F523C207E5416402701E8B
:1003E800E525F4FD7F04120772300712AF25780166
:1003F800EF08800103D8FD752400F525C207E54103
:1004080064037054300715C2070527E527700205F5
:1004180026640545267005F526752701E52764013C
:10042800452670077D7E7F04120772E52764024522
:100438002670077DBD7F04120772E52764034526F1
:1004480070077DDB7F04120772E527640445267078
:10045800077DE77F04120772E5416404705B30078B
:1004680015C2070527E5277002052664054526708D
:1004780005F526752701E5276401452670077DE700
:100488007F04120772E5276402452670077DDB7F2B
:1004980004120772E5276403452670077DBD7F04B3
:1004A800120772E52764044526700E7D7E800520BC
:0904B80004077DFF7F04120772A6
:0104C1002218
:1007DC007DFF7F0712077274682528F8E6FD7F06F7
:1007EC00120772300105743112076B3009082001B1
:1007FC0005743912076B0528E528C394084003E4F7
:02080C00F528CD
:01080E0022C7
:10000E0020000302009AE52E6401600302009AE5C7
:10001E004125E0246EF8E6FA08E6FB7C007D0AFF37
:10002E00AE0212071674422DF8E6F5317C007D0AF9
:10003E00AF03AE021207167C007D0A120716744239
:10004E002DF8E6F532E54125E0246EF8E6FA08E6ED
:10005E00FB7C007D64FFAE021207167C007D0A1247
:10006E00071674422DF8E6F5337C037DE8AF03AE38
:10007E000212071674422FF8E6F5347535FF753601
:10008E00BF74422541F8E6F5377538BF30000302DC
:10009E00011EE52E64017078E54125E0246EF8E638
:1000AE00FA08E6FB7C007D0AFFAE021207167442C8
:1000BE002DF8E6F5317C007D0AAF03AE021207166D
:1000CE007C007D0A12071674422DF8E6F532E541E2
:1000DE0025E0246EF8E6FA08E6FB7C007D64FFAEB0
:1000EE00021207167C007D0A12071674422DF8E6DE
:1000FE00F5337C037DE8AF03AE0212071674422F70
:10010E00F8E6F5347535FF7536BF7537FF7538BFB0
:10011E002000030201AAE52E640260030201AAE593
:10012E004125E0246EF8E6FA08E6FB7C007D0AFF26
:10013E00AE0212071674422DF8E6F5317C007D0AE8
:10014E00AF03AE021207167C007D0A120716744228
:10015E002DF8E6F532E54125E0246EF8E6FA08E6DC
:10016E00FB7C007D64FFAE021207167C007D0A1236
:10017E00071674422DF8E6F5337C037DE8AF03AE27
:10018E000212071674422FF8E6F5347535FF7536F0
:10019E00BF74422541F8E6F5377538BF200022E5D9
:1001AE002EB4021D7531FF7532FF7533FF7534FFA6
:1001BE007535FF7536BF74422541F8E6F53775384B
:1001CE00BF30092120011E7442254CF8E6F5397521
:1001DE003ABF753BFF753CFF753DFF753EFF753FA2
:1001EE00FF7540FF2220010A2009077DFF7F0712BD
:0301FE0007722263
:07076B002528F8E6FD7F07D9
:10077200EF24FB601214601714601C24037025E53B
:10078200A0541F44808016E5A0541F44A0800EE5AB
:10079200A0541F44C08006E5A0541F44E0F5A08D7C
:0507A2008053A01F229E
:1008C500438E805389F0758A20758CD1C28DD28C68
:0508D500D2A9D2AF2200
:08090D007F757EB8DEFEDFFC01
:0109150022BF
:0B090100E5B0F4FF65085FF5098F0802
:01090C0022C8
:10020100120901B203E50930E10ED201052EE52EF6
:10021100B40305E4F52EC201E50920E2030202CB95
:10022100E52EB4010A0541E541B40503754104E534
:100231002E640260030202CBE54125E0246EF8083A
:10024100746426F618E436F6E54125E0246EF8E6F6
:10025100FE08E6C394B0EE9404400CE54125E02489
:100261006EF876040876B0E54125E0246EF8E6F5EF
:100271002F08E6F530E54124FE601B146029146067
:100281003724037045AE2FAF307C007D0A1207166C
:10029100AD07E4FF8031AE2FAF307C007D0A12073D
:1002A10016AD077F018020AE2FAF307C007D0A1292
:1002B1000716AD077F02800FAE2FAF307C007D0A9D
:1002C100120716AD077F0312087BE50920E303023D
:1002D10003ADE52E64017038D54103754101E54157
:1002E100B4010885702F8571308025E541B402087D
:1002F10085722F8573308018E541B4030885742F0A
:10030100857530800BE541B4040685762F857730FD
:10031100E52E640260030203ADE54125E0246EF899
:1003210008749C26F61874FF36F6E54125E0246E24
:10033100F8E6FE08E6D39490EE9401500CE54125D1
:10034100E0246EF87601087690E54125E0246EF808
:10035100E6F52F08E6F530E54124FE601B1460291F
:1003610014603724037045AE2FAF307C007D0A1234
:100371000716AD07E4FF8031AE2FAF307C007D0A58
:10038100120716AD077F018020AE2FAF307C007DB4
:100391000A120716AD077F02800FAE2FAF307C0027
:1003A1007D0A120716AD077F0312087BE50830E3CB
:0703B10003D20922C2092258
:0300000002057482
:0C057400787FE4F6D8FD7581770205BBA6
:10071600BC000BBE0029EF8DF084FFADF022E4CCC7
:10072600F875F008EF2FFFEE33FEEC33FCEE9DEC90
:10073600984005FCEE9DFE0FD5F0E9E4CEFD22EDD6
:10074600F8F5F0EE8420D21CFEADF075F008EF2F20
:10075600FFED33FD4007985006D5F0F222C398FD11
:050766000FD5F0EA22AE
:10058000020600E493A3F8E493A34003F68001F28B
:1005900008DFF48029E493A3F85407240CC8C3337C
:1005A000C4540F4420C8834004F456800146F6DF4B
:1005B000E4800B01020408102040809006BDE47E18
:1005C000019360BCA3FF543F30E509541FFEE49340
:1005D000A360010ECF54C025E060A840B8E493A307
:1005E000FAE493A3F8E493A3C8C582C8CAC583CA32
:1005F000F0A3C8C582C8CAC583CADFE9DEE780BEEA
:0107150000E3
:00000001FF
