:1003C1000A55C0F9A4B0999282F8809008618040E2
:1003D100201008040201015400013F00013D010108
:1003E1003E01016000013C01016900014B500151D6
:0C03F10059015023024E01F4C104C10167
:10024600E5A0541F44A0F5A0E4F58053A01FE5A047
:10025600541F4480F5A07580FF53A01FE4F50812D3
:1002660003FE8F401205700508E508C3940A40EFA7
:10027600120495120523E53CB4021B300218C20293
:100286000569E569C3940B400375690A1203FE7498
:10029600402569F8A607E569640A701B753C03E505
:1002A600A0541F4480300407F5A07580FF8005F533
:1002B600A07580FE53A01F300305C2031202CD12A3
:0702C600000E12050A80AFD3
:03000B0002010CE3
:10010C00C0E0C0F0C083C082C0D075D000C000C0B9
:10011C0001C002C003C004C005C006C0070533E51A
:10012C003370020532055FE53CB402190553E55303
:10013C0070020552C3954FE552954E40087552001A
:10014C00755300D202E533B4F40DE532B4010875F1
:10015C003200753300B200E53CB4032AE54A602650
:10016C00300423054DE54D7002054CFFAE4CBE012D
:10017C0015BFF4120560E560C3940A40037560096D
:10018C00754C00754D00E55FB40605755F00D20334
:10019C0012034BD007D006D005D004D003D002D028
:0E01AC0001D000D0D0D082D083D0F0D0E0328D
:10034B00E5A0541F44E0F5A07580FF53A01FE5A066
:10035B00541F44C0F5A074612521F8E6F58053A025
:10036B001FE53CB40113E5A0541F44E0F5A0742233
:10037B002521F8E6F58053A01FE53CB40213E5A058
:10038B00541F44E0F5A0742A2521F8E6F58053A00C
:10039B001FE53CB40313E5A0541F44E0F5A07434EF
:1003AB002521F8E6F58053A01F0521E521C394080C
:0503BB004003E4F52100
:0103C000221A
:10000E00E53C6401702CE53E75F00A84745525F0CC
:10001E00F8E6F522E53E75F00A842455F8E6F52358
:10002E007524BF7525FF7526FF7527FF7528FF758B
:10003E0029FFE53C640260030200D0E54B75F00A2F
:10004E0084745525F0F8E6300030F52AE54B75F04E
:10005E000A842455F8E6F52B752CFFE55175F00A48
:10006E0084745525F0F8E6F52DE55175F00A8424D3
:10007E0055F8E6F52E752FFF802EF52AE54B75F017
:10008E000A842455F8E6F52B752CBFE55175F00A58
:10009E0084745525F0F8E6F52DE55175F00A8424A3
:1000AE0055F8E6F52E752FBFE55075F00A84745598
:1000BE0025F0F8E6F530E55075F00A842455F8E69B
:1000CE00F531E53C6403703574412560F8E6FF7543
:1000DE00F00A84745525F0F8E6F534EF75F00A84CD
:1000EE002455F8E6F5357536BF7537FF7538FF744C
:0E00FE00552560F8E6F53985553A753BBF2269
:10052300438E805389F0758A40758CA2C28DD28C1C
:05053300D2A9D2AF22A5
:0E05700000007F057E907D47DDFEDEFCDFFA99
:01057E00225A
:0B057F00E5B0F4FF653F5FF5548F3FCF
:01058A00224E
:1002CD0012057FE55430E00FE53CB4030A753C019F
:1002DD00E4F569F560C204E55430E107E53CB4038B
:1002ED0002D204E55430E208E53CB40103753C024A
:1002FD00E55430E348E53C64017042053DE53DB40D
:10030D000503753D01E53DB40109754E01754FF4C9
:10031D00753E01E53DB40209754E09754FC4753E34
:10032D0005E53DB40309754E3A754F98753E1EE5CA
:0E033D003DB40409754E75754F30753E3C2277
:0404D6007F057E0020
:1004DA00EF1FAA0670011E4A600BE4FDEDC3940CDF
:0504EA0050EE0D80F74B
:0104EF0022EA
:0204B800A90792
:1004BA00E4FBC294E91392941204D6D294E9C313CA
:0C04CA00F90BBB08ED7F057E000204DA90
:1004F000E4FBC294ECC313FCD29430940343048015
:090500001204D60BBB08EBAF049A
:0105090022CF
:10046E00C205D2947F0C7E001204DAC2947F507EB5
:10047E00001204DAD2947F0A7E001204DAA2949259
:06048E00051204D6A205D0
:010494002245
:1003FE0012046E7FCC1204B87F441204B87FC87EFC
:10040E00001204DA12046E7FCC1204B87FBE1204FE
:10041E00B87FC87E001204DA1204F0A9071204F0A5
:0B042E00E9C4540FF9EFC454F049FF7B
:0104390022A0
:10054C00E4FEC297EF1392A3EFC313FFD2970EBE34
:02055C0008F0A5
:01055E00227A
:10053800C29300C29700D2930012054CAF05120572
:040548004CC29322EC
:10043A00E4FDC29300C29700D2930012054CE4FF78
:10044A00C297EDC313FD30A303430580D2970FBFB4
:10045A0008EEC29300C29700D29700C2A300D2A3AB
:03046A0000AF05DB
:01046D00226C
:03055F0012043A49
:0D056200EFC4540F53070F75F00AA42FFFCC
:01056F002269
:10049500E4FD7F8E120538AD4B7F80120538AD51D6
:1004A5007F82120538AD507F841205387D807F8E9E
:0304B50002053805
:10050A007F8112055F8F4B7F8312055F8F517F8535
:08051A0012043A1205628F5031
:0105220022B6
:030000000201BA40
:0C01BA00787FE4F6D8FD7581690202012F
:1001C600020246E493A3F8E493A34003F68001F207
:1001D60008DFF48029E493A3F85407240CC8C3333A
:1001E600C4540F4420C8834004F456800146F6DF09
:1001F600E4800B01020408102040809003C1E47ED5
:10020600019360BCA3FF543F30E509541FFEE493FD
:10021600A360010ECF54C025E060A840B8E493A3C4
:10022600FAE493A3F8E493A3C8C582C8CAC583CAEF
:10023600F0A3C8C582C8CAC583CADFE9DEE780BEA7
:0103FD0000FF
:00000001FF
