:0B04EA00E5B0F4FF652E5FF5318F2EAA
:0104F50022E4
:10000E001204EAE53130E02530002220030E152DD2
:10001E00D3E52D648094805003E4F52D30030E1546
:10002E002BD3E52B648094805003E4F52BE531301F
:10003E00E12530002220030E052DD3E52D6480949A
:10004E00E34003752D6330030E052BD3E52B64803F
:10005E0094E34003752B63E53130E202B203E531E0
:10006E0030E32EC3E52B6480F8E52D6480984017AD
:10007E00852D2C852B2AB200E52B6480F8E52D64A6
:10008E008098400DC20422852C2D852A2BB200D2D9
:02009E0004223A
:1004BA00C0F9A4B0999282F8809080402010080474
:0204CA0002012D
:10045F00013100012E00012C1E012A14012D1E0155
:08046F002B14C100C183C1047C
:10025B00E4F580E5A0541F44A0F5A053A01F7580C2
:10026B00FFE5A0541F4480F5A053A01FE4F508122E
:10027B0002F11204CC0508E508D3940A40F11204EC
:10028B00A512019F300107C2011202F18F2F30021C
:0E029B0005C20212000E12038412012C80E331
:03000B00020204EA
:10020400C0E0C0F0C083C082C0D075D000C000C0C0
:1002140001C002C003C004C005C006C00705320502
:1002240030E532C394064005753200D202E530C38E
:1002340094FA4005753000D2011202A9D007D00605
:10024400D005D004D003D002D001D000D0D0D082C9
:07025400D083D0F0D0E032AE
:1002A9007580FFE5A0541F44E0F5A053A01FE52188
:1002B9009004C493F580E5A0541F44C0F5A053A051
:1002C9001F3000047422800274332521F8E6F5807A
:1002D900E5A0541F44E0F5A053A01F0521E521C363
:0702E90094084003E4F52135
:0102F00022EB
:10038400E52FD3952D40047FD2801BE52FC3952BF9
:10039400400BE52FD3952D50047F9E8009E52FC394
:0A03A400952B50057F6B12048F2289
:10012C007580FFC2AFE52FD3952D40055380FE801F
:10013C0003438001E5A0541F4480F5A053A01FE5A4
:10014C002FC3952B400CE52FD3952D50055380FDD7
:10015C008003438002E5A0541F4480F5A053A01FE8
:10016C00E52FC3952B50055380FB8003438004E59A
:10017C00A0541F4480F5A053A01F3004055380F7F2
:10018C008003438008E5A0541F4480F5A053A01FB2
:03019C00D2AF22BD
:10019F00300038E52B75F00A84E5F09004BA93F53A
:1001AF0022E52B75F00A8493F5237524FFE52D7551
:1001BF00F00A84E5F093F525E52D75F00A8493F5A3
:1001CF00267527FF7528FF75298C22E52F75F00AF4
:1001DF0084E5F09004BA93F533E52F75F00A849314
:1001EF00F5347535FF7536FF7537FF7538FF75397F
:0501FF00FF753AC62265
:1004A500438E805389F0758A40758CA2C28DD28C9B
:0504B500D2A9D2AF2224
:0E04CC0000007F057E907D47DDFEDEFCDFFA3E
:0104DA0022FF
:0404F600D2A07F050C
:0804FA0000AE071FEE70F922AD
:0F04DB00D2A11204F6C2A17F051204FAC2A02218
:0C050200C2A11204F6D2A17F050204FA87
:10047800C2A0A20592A17F051204FA1204F6C2A036
:07048800D2A17F050204FA76
:0A041000AB071204DB7F9012032DEE
:10041A001204F6A2A19206C2A07F051204FAA2064D
:01042A0022AF
:02032D00AD071A
:10032F00E4FCC2A07F051204FAED30E704D2A180ED
:10033F0002C2A17F051204FAD2A0ED25E0FD7F05D0
:09034F001204FA0CBC08DBC2A088
:010358002282
:1003F300E4FC1204F6ED25E0FD30A103430501C240
:0C040300A07F051204FA0CBC08E8AF054D
:01040F0022CA
:10048F001204107F4012032D12041AAF0312032D12
:06049F0012041A0205021E
:10035900120410AF0312032D12041A1204DB7F9149
:1003690012032D12041A1203F3AB07C20512047803
:0B0379001203F3AB07120502AF0322D2
:04042B007F057E00CB
:10042F00EF1FAA0670011E4A600BE4FDEDD3940C7A
:05043F0050EE0D80F7F6
:010444002295
:0203D500A90776
:1003D700E4FBC294E913929412042BD294E9C31359
:0C03E700F90BBB08ED7F057E0002042F1F
:10044500E4FBC294ECC313FCD294309403430480C0
:0904550012042B0BBB08EBAF04F1
:01045E00227B
:1003AE00C206D2947F0C7E0012042FC2947F507E20
:1003BE000012042FD2947F0A7E0012042FA2949270
:0603CE000612042BA2063A
:0103D4002206
:1002F1001203AE7FCC1203D57F441203D57FC87E93
:100301000012042F1203AE7FCC1203D57FBE12035D
:10031100D57FC87E0012042F120445A90712044597
:0B032100E9C4540FF9EFC454F049FF89
:01032C0022AE
:030000000200A05B
:0C00A000787FE4F6D8FD75813A0200E795
:1000AC0002025BE493A3F8E493A34003F68001F20D
:1000BC0008DFF48029E493A3F85407240CC8C33355
:1000CC00C4540F4420C8834004F456800146F6DF24
:1000DC00E4800B010204081020408090045FE47E51
:1000EC00019360BCA3FF543F30E509541FFEE49319
:1000FC00A360010ECF54C025E060A840B8E493A3E0
:10010C00FAE493A3F8E493A3C8C582C8CAC583CA0A
:10011C00F0A3C8C582C8CAC583CADFE9DEE780BEC2
:010477000084
:00000001FF
