:1004EA0075C01475B0F0E5C05404C454F0FFE5C0FB
:1004FA00541033333354F84FFFE5B0543F4FFFE401
:10050A00F5C075B00FE5C0541033333354F84FFFBC
:10051A00E5C05404C454F04FFFE5B0543F4FF4FF14
:07052A0065355FF5448F35D4
:0105310022A7
:10048E001204EAE544B4280C0524E524C394034081
:10049E0003E4F524E544B42402B203E544B4181190
:1004AE00E524B402020546E546C39464400375464E
:1004BE0063E544B41411E524B402021546E546D3AF
:1004CE009409500375460AE535B41408E524B401C1
:0C04DE000AD20122E524B40102C201226E
:10078400C0F9A4B0999282F88090804020100804A7
:02079400020160
:1005F600082DC0C0C0FFFFFFF9C10825C0C0BFC09D
:10060600C0FFA4C1083CC0C0FFFFFFFFB0C101444A
:10061600000135000124000146170147000137504B
:0A062600013959013823C103C10155
:10053200E4FD7F0512057E7DFF7F0412057EE4F552
:10054200081204158F361207A70508E508D3940A86
:1005520040EF1206BA120748300207C2021204150F
:100562008F36300405C20412048E12066512072F5C
:050572001202D280E33B
:03000B000201E10E
:1001E100C0E0C0F0C083C082C0D075D000C000C0E4
:1001F10001C002C003C004C005C006C007053BE53D
:100201003B7002053A0545C394C2E53A94014008A2
:10021100753A00753B00D202E545C3940640057569
:100221004500D204E539700BE5377007300302D27F
:1002310000D2063000270523E52370020522054A76
:10024100C394C4E52294094008752200752300C2B5
:1002510000E54AC394324005754A00B205300619DB
:100261000549E54970020548C394C4E5489409402D
:1002710008754800754900C206300318E5A0541FEF
:1002810044A0300007F5A05380108005F5A07580CB
:100291000053A01F20031CE536D39546E5A0541F4B
:1002A10044A04007F5A05380108005F5A07580009B
:1002B10053A01F1205B9D007D006D005D004D00332
:1002C100D002D001D000D0D0D082D083D0F0D0E005
:0102D10032FA
:100665007DFF3006031D8003430501300305430567
:100675000280035305FD3000083005055305FB8056
:0D06850003430504C2AF7F0412057ED2AF0F
:010692002245
:1005B9007DFF7F0712057EE52190078E93FD7F065B
:1005C90012057EE5247005742D120577E524B40122
:1005D900057425120577E524B40205743C120577E4
:0C05E9000521E521C394084003E4F5213E
:0105F50022E3
:1002D200E524702AE54775F00A84E5F090078493D7
:1002E200F52DE53675F00A84E5F093547FF52EE599
:1002F2003675F00A8475F00A84E5F093F52FE5244B
:100302006401706630012CE53775F00A84E5F090DF
:10031200078493F525E53775F00A8475F00A84E5BC
:10032200F093F526E53975F00A84E5F093F528E5B2
:1003320039802AE53975F00A84E5F090078493F54F
:1003420025E53975F00A8475F00A84E5F093F526FF
:10035200E53875F00A84E5F093F528E53875F00A7A
:100362008475F00A84E5F093F529E524B40217E5D3
:100372004675F00A84E5F090078493F53CE54675EE
:07038200F00A8493F53D220F
:070577002521F8E6FD7F07D6
:10057E00EF24FB601414601B1460222403702B8D77
:10058E0080E5A0541F4480801C8D80E5A0541F443C
:10059E00A080128D80E5A0541F44C080088D80E598
:0B05AE00A0541F44E0F5A053A01F2242
:10074800438E805389F0758A40758CA2C28DD28CF5
:05075800D2A9D2AF227E
:0E07A70000007F057E907D47DDFEDEFCDFFA60
:0107B5002221
:0406FB007F057E00F9
:1006FF00EF1FAA0670011E4A600BE4FDEDD3940CA8
:05070F0050EE0D80F723
:0107140022C2
:0206DD00A9076B
:1006DF00E4FBC294E91392941206FBD294E9C3137C
:0C06EF00F90BBB08ED7F057E000206FF42
:10071500E4FBC294ECC313FCD294309403430480ED
:090725001206FB0BBB08EBAF044C
:01072E0022A8
:10069300C207D2947F0C7E001206FFC2947F507E65
:1006A300001206FFD2947F0A7E001206FFA29492E4
:0606B300071206FBA2077E
:0106B900221E
:100415001206937FCC1206DD7F441206DD7FC87E6F
:10042500001206FF1206937FCC1206DD7FBE120670
:10043500DD7FC87E001206FF120715A907120715F2
:10044500E9540FF547E9C4540FF9EFC454F0FF49D7
:10045500F50930E71914F4F509E54724FFFFE434FD
:10046500FFFEEFF4FDEEF4FCE412011980098509A5
:1004750009AC47E412011EE4FBFA7920783F12002B
:080485000E1201528F47AF096E
:01048D00224C
:10077100E4FEC297EF1392A3EFC313FFD2970EBE0D
:0207810008F07E
:010783002253
:10075D00C29300C29700D29300120771AF05120722
:04076D0071C29322A0
:10063100E4FDC29300C29700D29300120771E4FF58
:10064100C297EDC313FD30A303430580D2970FBFBB
:1006510008EEC29300C29700D29700C2A300D2A3B2
:0306610000AF05E2
:010664002273
:0307960012063117
:0D079900EFC4540F53070F75F00AA42FFF93
:0107A6002230
:1006BA00E4FD7F8E12075DAD377F8012075DAD398D
:1006CA007F8212075DAD387F8412075D7D807F8E41
:0306DA0002075DB7
:10072F007F811207968F377F831207968F397F85C8
:08073F001206311207998F38F0
:01074700228F
:10000E00EC4D6011E8497017ED33EC3304600DE4EC
:10001E00FCFFFEFD22E933E8330470F80201BE1244
:10002E00018958046009E4CC248150062850090245
:10003E0001C82840030201C5C0E0EB4A7044B980F4
:10004E0006D0E0FB0201B4EF4E701CBD8008EBFF42
:10005E00EAFEE9FD80EBE98DF0A4FEE5F00200F783
:10006E00E9CDF9EAFEEBFFEF89F0A4FCE5F0CE89CD
:10007E00F0A42EFFE435F0CD89F0A42DFEE435F08A
:10008E008067EF4E7005BD80D780C3EF8BF0A4ACB8
:10009E00F0EE8BF0A42CFCE435F0F8EF8AF0A42CF3
:1000AE00E5F038FCE433CB8DF0A42CFCE5F03BF806
:1000BE00EE8AF0A42CFCE5F038F8E433CF89F0A4F6
:1000CE002CFCE5F038CF3400CE89F0A42FFFE5F0FC
:1000DE003EFEE433C98DF0A42EFEE5F039CD8AF054
:1000EE00A42FFFE5F03EFEE43DFD33D0E0FB5007CC
:1000FE000BBB000F0201C8EC2CFCEF33FFEE33FEFE
:06010E00ED33FD0201A02B
:1001140075F020800E75F010800575F0087D007E66
:10012400007F003392D530D5031201D3EC33401055
:10013400EF33FFEE33FEED33FDEC33FCD5F0ED226F
:0E014400E5F0247EA2D513CC92E7CDCEFF22AB
:10015200EDD2E7CD33EC3392D524814006E4FFFEA5
:10016200FDFC22FCE4CFCECDCC24E0501174FF8004
:10017200EDC3CC13CCCD13CDCE13CECF13CF0470A1
:07018200F030D5DE0201D3CD
:10018900E9D2E7C933E833F892D5EDD2E7CD33ECBC
:0701990033FC5002B2D52235
:1001A000EC30E7100FBF000C0EBE00080DBD0004C0
:1001B0000BEB6014A2D5EB13FCED92E7FD2274FF6C
:1001C000FCFDFEFF22E480F8A2D574FF13FC7D80C5
:0301D000E480EFD9
:030000000203896F
:0C038900787FE4F6D8FD75814A0203D0AD
:0E01D300C3E49FFFE49EFEE49DFDE49CFC223D
:10039500020532E493A3F8E493A34003F68001F247
:1003A50008DFF48029E493A3F85407240CC8C33369
:1003B500C4540F4420C8834004F456800146F6DF38
:1003C500E4800B01020408102040809005F6E47ECD
:1003D500019360BCA3FF543F30E509541FFEE4932D
:1003E500A360010ECF54C025E060A840B8E493A3F4
:1003F500FAE493A3F8E493A3C8C582C8CAC583CA1F
:10040500F0A3C8C582C8CAC583CADFE9DEE780BED6
:0106300000C9
:00000001FF
