:1007ED00C0F9A4B0999282F880908040201008043E
:0207FD000201F7
:1006CF00082BC0C0C0C0FFFFFFC60835C0C0FFFF6A
:1006DF00FFFFFF8C0823C0C0C0FFFFFFFF88014151
:1006EF0000013D0001220001451901431901440099
:0206FF00C181B7
:10058800E4FD7F0512069A7DFF7F0412069AE4F5C2
:10059800081204568F3F1207FF0508E508D3940A8E
:1005A80040EF1207C4120258300207C20212045662
:1005B8008F3F300305C203120534300003120320B5
:0905C800C2AF12065BD2AF80DC69
:1003200030012AE53FC39545500AE4F533F534AF73
:10033000340203C67533017534F4AE33AF347C0038
:100340007D641201F5EF75F033A4FF8079E53FD3AA
:1003500094145019753300753464AE33AF347C0097
:100360007D641201F5EF75F033A4FF8059E53FD3AA
:1003700094144034E53F9428502EAC3FE412011E03
:100380007B017A007970784112000E1201528E338F
:100390008F34AC3FE412011E7BCD7ACC79F47840E7
:1003A00012000E120152801EE53FC39428401A75B8
:1003B0003301753490AE33AF347C007D641201F5A7
:0A03C000EF75F033A4FF120773225B
:10065B007FFF3001031F8003430701E52270055321
:10066B0007FD8003430702E522B401055307FB8016
:10067B0003430704E522B402055307F7800343073E
:0E068B0008E5A0541F4480F5A08F8053A01FE7
:01069900223E
:03000B000204CF1D
:1004CF00C0E0C0F0C083C082C0D075D000C000C0F3
:1004DF0001C002C003C004C005C006C00705420525
:1004EF0040053EE542C394064005754200D203E540
:1004FF0040C394144005754000D202E53EC394C832
:10050F004005753E00D200120619D007D006D0055F
:10051F00D004D003D002D001D000D0D0D082D0836D
:05052F00D0F0D0E03225
:100619007DFF7F0712069AE5219007F793FD7F0674
:1006290012069AE5227004742B8010E522B40104A5
:1006390074358007E522B4020C74232521F8E6FD00
:100649007F0712069A0521E521C394084003E4F5C2
:01065900217F
:01065A00227D
:10025800E522702DE54475F00A84E5F09007ED93EA
:10026800F52BE54475F00A8493F52CE53F75F00A03
:1002780084E5F093547FF52DE53F75F00A8493F5F6
:100288002EE522B40138E54375F00A1201D3AFF028
:10029800EF3395E0FE74ED2FF58274073EF583E4A5
:1002A80093F535E54375F00A1201D3FF3395E0FE67
:1002B80074ED2FF58274073EF583E493F536E52255
:1002C80064027053AE33AF34FC7D0A1201F574ED4D
:1002D8002DF58274073CF583E493F523AE33AF34F0
:1002E8007C007D0A1201F57C007D0A1201F574ED8F
:1002F8002DF58274073CF583E493F524AE33AF34CF
:100308007C007D641201F574ED2FF58274073EF5CB
:0803180083E493547FF52522D4
:10069A00EF24FB601214601714601C24037025E514
:1006AA00A0541F44808016E5A0541F44A0800EE584
:1006BA00A0541F44C08006E5A0541F44E0F5A08D55
:0506CA008053A01F2277
:1007C400438E805389F0758A40758CA2C28DD28C79
:0507D400D2A9D2AF2202
:0E07FF0000007F057E907D47DDFEDEFCDFFA08
:01080D0022C8
:1005D10075C01475B0F0E5C05404C454F0FFE5C013
:1005E100541033333354F84FFFE5B0543F4FFFE419
:1005F100F5C075B00FE5C0541033333354F84FFFD5
:10060100E5C05404C454F04FFFE5B0543F4FF4FF2C
:07061100653D5FF5418F3DDF
:0106180022BF
:100534001205D1E541B488140522E522C394034091
:1005440003E4F522E522B40203854345E541B448BA
:1005540013E522B4010E1543D3E54364809480501F
:1005640003E4F543E541B44413E522B4010E054325
:10057400C3E543648094E34003754363E541B48475
:0405840002B201229C
:04081D00D2A07F05E1
:0808210000AE071FEE70F92282
:0F080E00D2A112081DC2A17F05120821C2A0228B
:0C082900C2A112081DD2A17F0502082107
:0307D90012070202
:1007DC0012081DA2A19204C2A07F05120821A20436
:0107EC0022EA
:02070200AD0741
:10070400E4FCC2A07F05120821ED30E704D2A180E9
:1007140002C2A17F05120821D2A0ED25E0FD7F05CC
:090724001208210CBC08DBC2A084
:01072D0022A9
:10077300AB0712080E7F901207D97F401207D9AF3B
:0D078300031207021207DC120829AF03223F
:040790007F057E0063
:10079400EF1FAA0670011E4A600BE4FDEDD3940C12
:0507A40050EE0D80F78E
:0107A900222D
:02075500A907F2
:10075700E4FBC294E9139294120790D294E9C3136D
:0C076700F90BBB08ED7F057E0002079433
:1007AA00E4FBC294ECC313FCD29430940343048058
:0907BA001207900BBB08EBAF0421
:0107C3002213
:10072E00C204D2947F0C7E00120794C2947F507E36
:10073E0000120794D2947F0A7E00120794A294921C
:06074E0004120790A20452
:010754002282
:1004560012072E7FCC1207557F441207557FC87EA0
:100466000012079412072E7FCC1207557FBE120783
:10047600557FC87E001207941207AAA9071207AA79
:10048600E9540FF544E9C4540FF9EFC454F0FF4999
:10049600F50930E71914F4F509E54424FFFFE434BF
:1004A600FFFEEFF4FDEEF4FCE41201198009850964
:1004B60009AC44E412011EE4FBFA79C87840120044
:0804C6000E1201528F44AF0930
:0104CE00220B
:10000E00EC4D6011E8497017ED33EC3304600DE4EC
:10001E00FCFFFEFD22E933E8330470F80201BE1244
:10002E00018958046009E4CC248150062850090245
:10003E0001C82840030201C5C0E0EB4A7044B980F4
:10004E0006D0E0FB0201B4EF4E701CBD8008EBFF42
:10005E00EAFEE9FD80EBE98DF0A4FEE5F00200F783
:10006E00E9CDF9EAFEEBFFEF89F0A4FCE5F0CE89CD
:10007E00F0A42EFFE435F0CD89F0A42DFEE435F08A
:10008E008067EF4E7005BD80D780C3EF8BF0A4ACB8
:10009E00F0EE8BF0A42CFCE435F0F8EF8AF0A42CF3
:1000AE00E5F038FCE433CB8DF0A42CFCE5F03BF806
:1000BE00EE8AF0A42CFCE5F038F8E433CF89F0A4F6
:1000CE002CFCE5F038CF3400CE89F0A42FFFE5F0FC
:1000DE003EFEE433C98DF0A42EFEE5F039CD8AF054
:1000EE00A42FFFE5F03EFEE43DFD33D0E0FB5007CC
:1000FE000BBB000F0201C8EC2CFCEF33FFEE33FEFE
:06010E00ED33FD0201A02B
:1001140075F020800E75F010800575F0087D007E66
:10012400007F003392D530D50312024AEC334010DD
:10013400EF33FFEE33FEED33FDEC33FCD5F0ED226F
:0E014400E5F0247EA2D513CC92E7CDCEFF22AB
:10015200EDD2E7CD33EC3392D524814006E4FFFEA5
:10016200FDFC22FCE4CFCECDCC24E0501174FF8004
:10017200EDC3CC13CCCD13CDCE13CECF13CF0470A1
:07018200F030D5DE02024A55
:10018900E9D2E7C933E833F892D5EDD2E7CD33ECBC
:0701990033FC5002B2D52235
:1001A000EC30E7100FBF000C0EBE00080DBD0004C0
:1001B0000BEB6014A2D5EB13FCED92E7FD2274FF6C
:1001C000FCFDFEFF22E480F8A2D574FF13FC7D80C5
:0301D000E480EFD9
:030000000203CA2E
:0C03CA00787FE4F6D8FD7581450204112F
:1001D300C2D530F707B2D563F0FF05F030E70CB2B4
:1001E300D5F4048463F0FF05F080018430D502F474
:0201F3000422E4
:1001F500BC000BBE0029EF8DF084FFADF022E4CCEE
:10020500F875F008EF2FFFEE33FEEC33FCEE9DECB6
:10021500984005FCEE9DFE0FD5F0E9E4CEFD22EDFC
:10022500F8F5F0EE8420D21CFEADF075F008EF2F46
:10023500FFED33FD4007985006D5F0F222C398FD37
:050245000FD5F0EA22D4
:0E024A00C3E49FFFE49EFEE49DFDE49CFC22C5
:1003D600020588E493A3F8E493A34003F68001F2B0
:1003E60008DFF48029E493A3F85407240CC8C33328
:1003F600C4540F4420C8834004F456800146F6DFF7
:10040600E4800B01020408102040809006CFE47EB1
:10041600019360BCA3FF543F30E509541FFEE493EB
:10042600A360010ECF54C025E060A840B8E493A3B2
:10043600FAE493A3F8E493A3C8C582C8CAC583CADD
:10044600F0A3C8C582C8CAC583CADFE9DEE780BE95
:0107010000F7
:00000001FF
