:100699000A22C0F9A4B0999282F88090082C80406F
:1006A900201008040201014600013C00024700FA3B
:0806B900024A012CC103C1003B
:10046200E4FD7F051205DA7DFF7F041205DA7F665F
:100472001207111207271201E230016C7F011206E6
:100482006EAC07E41200B88F4F8E4E8D4D8C4C121D
:1004920000EC7C007D6412016DAC06AD07E4120035
:1004A200B3E4FBFA794C78421200111200EC8E543C
:1004B2008F557F0312066EAC07E41200B88F538E7D
:1004C200528D518C501200EC7C007D6412016DAC97
:1004D20006AD07E41200B3E4FBFA794C784212004D
:1004E200111200EC8E568F571203CA300288C202D4
:0504F2001203268081C9
:03000B0002058368
:10058300C0E0C0F0C083C082C0D075D000C000C03E
:1005930001C002C003C004C005C006C00705490569
:1005A3003DE549C394064005754900D202E53DC3C4
:1005B300942D4005753D00D20112060FD007D006D9
:1005C300D005D004D003D002D001D000D0D0D08247
:0705D300D083D0F0D0E0322C
:1003CA00C2AF7580FFD3E5559548E5549547E5A03A
:1003DA00541F44804007F5A05380FE8005F5A043D2
:1003EA0080FE53A01FD3E557954BE556954AE5A0E5
:1003FA00541F44804007F5A05380FD8005F5A043B3
:10040A00800253A01FE5A0541F4480300307F5A0C3
:10041A004380048005F5A05380FB53A01FE5A05438
:10042A001F4480300007F5A04380088005F5A053DB
:10043A0080F753A01FD3E5559557E5549556E5A087
:10044A00541F44804007F5A05380EF8005F5A04370
:08045A00801053A01FD2AF2255
:10060F007DFF7F071205DA742C2521F8E6FD7F06A2
:10061F001205DA300004743E800274342521F8E6A6
:10062F00FD7F071205DA0521E521C394084003E495
:02063F00F521A3
:010641002296
:1001E20030000302028720034DAE54AF557C007DE0
:1001F2000A12017F74222DF8E6F534AE54AF557C15
:10020200007D0A12017F7C007D0A12017F74222D7B
:10021200F8E6F535AE54AF557C007D6412017F746B
:10022200222FF8E6547FF5367537FF7538FF75399A
:10023200FF85233A804BAE56AF577C007D0A1201F0
:100242007F74222DF8E6F534AE56AF577C007D0A56
:1002520012017F7C007D0A12017F74222DF8E6F5DF
:1002620035AE56AF577C007D6412017F74222FF8A1
:10027200E6547FF5367537FF7538FF7539FF8525EA
:100282003A753BC12220034DAE47AF487C007D0A40
:1002920012017F74222DF8E6F53EAE47AF487C008E
:1002A2007D0A12017F7C007D0A12017F74222DF8E3
:1002B200E6F53FAE47AF487C007D6412017F7422B1
:1002C2002FF8E6547FF5407541FF7542FF7543FFF5
:1002D200852344804BAE4AAF4B7C007D0A12017FDE
:1002E20074222DF8E6F53EAE4AAF4B7C007D0A1231
:1002F200017F7C007D0A12017F74222DF8E6F53F12
:10030200AE4AAF4B7C007D6412017F74222FF8E667
:10031200547FF5407541FF7542FF7543FF852544C3
:0403220075458C226F
:1005DA00EF24FB601214601714601C24037025E5D5
:1005EA00A0541F44808016E5A0541F44A0800EE545
:1005FA00A0541F44C08006E5A0541F44E0F5A08D16
:05060A008053A01F2237
:10072700438E805389F0758A40758CA2C28DD28C16
:05073700D2A9D2AF229F
:0B074B00E5B0F4FF653C5FF5468F3C15
:010756002280
:1003260012074BE54630E04430004130032074ECC0
:10033600254BF54B74FF354AF54AD3E54B9400E55A
:100346004A648094805025E4F54AF54B801E74EC8F
:100356002548F54874FF3547F547D3E5489400E549
:1003660047648094805005E4F547F548E54630E15A
:10037600443000413003207414254BF54BE4354AD4
:10038600F54AC3E54B94F4E54A64809481402675AA
:100396004A01754BF4801E74142548F548E4354728
:1003A600F547C3E54894F4E54764809481400675B3
:1003B60047017548F4E54630E202B200E54630E30F
:0403C60002B203225A
:04075700D2A07F05A8
:08075B0000AE071FEE70F92249
:0F073C00D2A1120757C2A17F0512075BC2A022EC
:0C076300C2A1120757D2A17F0502075B5C
:1006FA00C2A0A20492A17F0512075B120757C2A0EB
:07070A00D2A17F0502075B8D
:0A06DF00AB0712073C7F90120642A1
:1006E900120757A2A19204C2A07F0512075BA204B8
:0106F90022DE
:02064200AD0702
:10064400E4FCC2A07F0512075BED30E704D2A18071
:1006540002C2A17F0512075BD2A0ED25E0FD7F0554
:0906640012075B0CBC08DBC2A00C
:01066D00226A
:1006C200E4FC120757ED25E0FD30A103430501C20A
:0C06D200A07F0512075B0CBC08E8AF0518
:0106DE0022F9
:100711001206DF7F401206421206E9AF03120642BB
:060721001206E902076365
:10066E001206DFAF031206421206E912073C7F9113
:10067E001206421206E91206C2AB07C2041206FAAD
:0B068E001206C2AB07120763AF032285
:10000E00020162EC5D046005E859047003020158B8
:10001E00120123580460F6EC4860F2EC7004FDFE09
:10002E00FF22C860DB2481C85009C39860025006C5
:10003E0002015F9850CAF582E9294B4A7005AB82DE
:10004E0002014E75F0007C1A7880C3EF9BEE9AED9C
:10005E0099400DC3EF9BFFEE9AFEED99FDE842F03D
:10006E00DC23ACF0D0E0FFD0E0FED0E0FDAB822090
:10007E00E7101BEB60BAEC2CFCEF33FFEE33FEED1A
:10008E0033FD02013AE803F830E705C0F075F000E1
:10009E00EF2FFFEE33FEED33FD40B830E7C280AAFE
:1000AE0075F020800E75F010800575F0087D007ECD
:1000BE00007F003392D530D5031201D4EC334010BB
:1000CE00EF33FFEE33FEED33FDEC33FCD5F0ED22D6
:0E00DE00E5F0247EA2D513CC92E7CDCEFF2212
:1000EC00EDD2E7CD33EC3392D524814006E4FFFE0C
:1000FC00FDFC22FCE4CFCECDCC24E0501174FF806B
:10010C00EDC3CC13CCCD13CDCE13CECF13CF047007
:07011C00F030D5DE0201D432
:10012300E9D2E7C933E833F892D5EDD2E7CD33EC22
:0701330033FC5002B2D5229B
:10013A00EC30E7100FBF000C0EBE00080DBD000426
:10014A000BEB6014A2D5EB13FCED92E7FD2274FFD2
:10015A00FCFDFEFF22E480F8A2D574FF13FC7D802B
:03016A00E480EF3F
:030000000204F700
:0C04F700787FE4F6D8FD75815702053EC1
:10016D00EF8DF0A4A8F0CF8CF0A428CE8DF0A42EA6
:02017D00FE2260
:10017F00BC000BBE0029EF8DF084FFADF022E4CC64
:10018F00F875F008EF2FFFEE33FEEC33FCEE9DEC2D
:10019F00984005FCEE9DFE0FD5F0E9E4CEFD22ED73
:1001AF00F8F5F0EE8420D21CFEADF075F008EF2FBD
:1001BF00FFED33FD4007985006D5F0F222C398FDAE
:0501CF000FD5F0EA224B
:0E01D400C3E49FFFE49EFEE49DFDE49CFC223C
:10050300020462E493A3F8E493A34003F68001F2A8
:1005130008DFF48029E493A3F85407240CC8C333F9
:10052300C4540F4420C8834004F456800146F6DFC8
:10053300E4800B0102040810204080900699E47EB9
:10054300019360BCA3FF543F30E509541FFEE493BD
:10055300A360010ECF54C025E060A840B8E493A384
:10056300FAE493A3F8E493A3C8C582C8CAC583CAAF
:10057300F0A3C8C582C8CAC583CADFE9DEE780BE67
:0106C1000038
:00000001FF
