:040449007F057E00AD
:10044D00EF1FAA0670011E4A600BE4FDEDC3940C6C
:05045D0050EE0D80F7D8
:010462002277
:02042B00A9071F
:10042D00E4FBC294E9139294120449D294E9C313E4
:0C043D00F90BBB08ED7F057E0002044DAA
:10046300E4FBC294ECC313FCD294309403430480A2
:090473001204490BBB08EBAF04B5
:01047C00225D
:10040400C203D2947F0C7E0012044DC2947F507EAE
:100414000012044DD2947F0A7E0012044DA29492DD
:0604240003120449A203CB
:01042A0022AF
:10033A001204047FCC12042B7F4412042B7FC87E44
:10034A000012044D1204047FCC12042B7FBE120447
:10035A002B7FC87E0012044D120463A9071204639E
:0B036A00E9C4540FF9EFC454F049FF40
:010375002265
:1003D7000A3AC0F9A4B0999282F880900846804002
:1003E7002010080402010235000A01380001390112
:0C03F700012200014500C101C102C1004B
:1002B800E4FD7F051202FF1202FBE4F50A12033A7D
:1002C8008F347F647E00120492050AE50AC3940AFB
:1002D80040EB12047DC2AF1203A9D2AF300107C2AE
:1002E8000112033A8F34300205C2021202081200CA
:0302F800E480E2BD
:1003A900E5364535601CE539B40105752202801230
:1003B900E539B402057522038008E539B4030375EC
:0E03C9002207E53645357005F5381202FB2295
:03000B0002000EE2
:10000E00C0E0C0F0C083C082C0D075D000C000C0B8
:10001E0001C002C003C004C005C006C007053305F9
:10002E0045E533B4140775330005440537E544B48C
:10003E000605754400D202E537B4FA07753700D2CB
:10004E00010538E53645356010E538B4020B7538D4
:10005E0000E536153670021535D3E5369400E535D4
:10006E0094004054E539B40116E545C3952240038A
:10007E001202FBE545640A703FF5457DFE8034E5CE
:10008E0039B40216E545C3952240031202FBE5453D
:10009E00640A7024F5457DFD8019E539B40319E530
:1000AE0045C3952240031202FBE545B40A0A754585
:1000BE00007DFB7F041202FF120376D007D006D01C
:1000CE0005D004D003D002D001D000D0D0D082D041
:0600DE0083D0F0D0E032F7
:100376007DFF7F071202FF74462521F8E6FD7F0602
:100386001202FF300004742B800274232521F8E644
:10039600FD7F071202FF0521E521C394084003E40F
:0203A600F5213F
:0103A8002232
:1000E40030002D752BC6E53475F00A84743A25F07A
:1000F400F8E6F52CE53475F00A84243AF8E6F52D93
:10010400752EFF752FFF7530BF853E317532BF22C6
:10011400AE35AF367C007D0A120263743A2DF8E6E0
:10012400F523AE35AF367C007D0A1202637C007D78
:100134000A120263743A2DF8E6F524AE35AF367C24
:10014400007D641202637C007D0A120263743A2DFE
:10015400F8E6F525AE35AF367C037DE8120263740C
:100164003A2FF8E6F5267527FF7528BF743A253926
:08017400F8E6F529752ABF2207
:0402FB007DFF7F0400
:1002FF00EF24FB601414601B1460222403702B8DF9
:10030F0080E5A0541F4480801C8D80E5A0541F44BD
:10031F00A080128D80E5A0541F44C080088D80E519
:0B032F00A0541F44E0F5A053A01F22C3
:10047D00438E805389F0758A50758CFBC28DD28C5A
:05048D00D2A9D2AF224C
:0804B2007F0C7EA9DEFEDFFCD9
:0104BA00221F
:10049200AD07AC06ED1DAE0470011C4E60051204E2
:0404A200B280F12211
:0B04A600E5B0F4FF65085FF5098F0862
:0104B1002228
:100208001204A6E50930E002B200E50930E105E490
:10021800F535F536E50930E230E53645357007F550
:100228003575363C8023D3E536943CE5359400504B
:10023800087535007536788010D3E5369478E5353D
:1002480094005005E4F535F536E50930E30C053939
:0B025800E539C394044003753901220E
:0300000002017C7E
:0C017C00787FE4F6D8FD75814D0201C3C8
:10026300BC000BBE0029EF8DF084FFADF022E4CC7F
:10027300F875F008EF2FFFEE33FEEC33FCEE9DEC48
:10028300984005FCEE9DFE0FD5F0E9E4CEFD22ED8E
:10029300F8F5F0EE8420D21CFEADF075F008EF2FD8
:1002A300FFED33FD4007985006D5F0F222C398FDC9
:0502B3000FD5F0EA2266
:100188000202B8E493A3F8E493A34003F68001F2D3
:1001980008DFF48029E493A3F85407240CC8C33378
:1001A800C4540F4420C8834004F456800146F6DF47
:1001B800E4800B01020408102040809003D7E47EFD
:1001C800019360BCA3FF543F30E509541FFEE4933C
:1001D800A360010ECF54C025E060A840B8E493A303
:1001E800FAE493A3F8E493A3C8C582C8CAC583CA2E
:1001F800F0A3C8C582C8CAC583CADFE9DEE780BEE6
:0104030000F8
:00000001FF
