:0B048500E5B0F4FF65125FF5158F1263
:010490002249
:10012200120485E51530E0151516D3E516648094A2
:10013200805003E4F516AD167F011203F6E5153083
:10014200E1150516C3E516648094E3400375166352
:10015200AD167F011203F6E51530E2151509D3E558
:1001620009648094805003E4F509AD09E4FF1203A9
:10017200F6E51530E3150509C3E509648094E3400B
:0C01820003750963AD09E4FF1203F622C7
:10045500C0F9A4B0999282F88090804020100804D9
:02046500020192
:10042900080AC0C0FFFFC0C0C0C00115000112000A
:0604390001091E01160F6F
:1001E500E4FD7F0512026E7DFF7F0412026E7F0122
:1001F5001203228F16E4FF1203228F09E4F5181269
:1002050002328F131204670518E518D3940A40EFDC
:1002150012044012009A120367300105C20112014F
:0D022500223000EFC2001202328F1380E67B
:03000B0002018E61
:10018E00C0E0C0F0C083C082C0D075D000C000C037
:10019E0001C002C003C004C005C006C00705170594
:1001AE0014E517C394064005751700D201E514C374
:1001BE0094FA4005751400D2001202A3D007D0069F
:1001CE00D005D004D003D002D001D000D0D0D08240
:0701DE00D083D0F0D0E03225
:10036700AF16EF3395E0FEC3E5139FEE6480F87494
:10037700809850047D108002E4FD7F0512026E22F2
:1002A3007DFF7F0712026EE50890045F93FD7F06D2
:1002B30012026E740A2508F8E6FD7F0712026E0526
:0B02C30008E508C394084003E4F508B8
:0102CE00220D
:10009A00E51375F00A84E5F090045593F50AE51323
:1000AA0075F00A8493F50BE51675F00A120345AF4D
:1000BA00F0EF3395E0FE74552FF58274043EF58314
:1000CA00E493F50EE51675F00A120345FF3395E041
:1000DA00FE74552FF58274043EF583E493F50FE51B
:1000EA000975F00A120345AFF0EF3395E0FE745537
:1000FA002FF58274043EF583E493F510E50975F053
:10010A000A120345FF3395E0FE74552FF5827404F5
:08011A003EF583E493F5112288
:10026E00EF24FB601214601714601C24037025E544
:10027E00A0541F44808016E5A0541F44A0800EE5B4
:10028E00A0541F44C08006E5A0541F44E0F5A08D85
:05029E008053A01F22A7
:10044000438E805389F0758A40758CA2C28DD28C00
:05045000D2A9D2AF2289
:0E04670000007F037E487DA1DDFEDEFCDFFA93
:010475002264
:0403C2007F057E0035
:1003C600EF1FAA0670011E4A600BE4FDEDD3940CE4
:0503D60050EE0D80F760
:0103DB0022FF
:02038700A907C4
:10038900E4FBC294E91392941203C2D294E9C31311
:0C039900F90BBB08ED7F057E000203C6D7
:1003DC00E4FBC294ECC313FCD2943094034304802A
:0903EC001203C20BBB08EBAF04C5
:0103F50022E5
:1002FB00C202D2947F0C7E001203C6C2947F507E42
:10030B00001203C6D2947F0A7E001203C6A29492F7
:06031B00021203C2A2025F
:0103210022B9
:100232001202FB7FCC1203877F441203877FC87EA2
:10024200001203C61202FB7FCC1203877FBE120389
:10025200877FC87E001203C61203DCA9071203DCE3
:0B026200E9C4540FF9EFC454F049FF49
:01026D00226E
:04049100D2A07F0571
:0804950000AE071FEE70F92212
:0F047600D2A1120491C2A17F05120495C2A02247
:0C049D00C2A1120491D2A17F05020495B7
:080410001204767FA01202CF56
:10041800120491A2A19202C2A07F05120495A20221
:0104280022B1
:0202CF00AD0779
:1002D100E4FCC2A07F05120495ED30E704D2A180B1
:1002E10002C2A17F05120495D2A0ED25E0FD7F0594
:0902F1001204950CBC08DBC2A04C
:0102FA0022E1
:1003A500E4FC120491ED25E0FD30A103430501C2F3
:0C03B500A07F051204950CBC08E8AF0501
:0103C1002219
:1003F600AB05AA07120410AF021202CF120418AFFF
:0A040600031202CF12041802049D35
:02032200AB0727
:10032400120410AF031202CF1204181204767FA134
:100334001202CF1204181203A5AD0712049DAF05D3
:010344002296
:0300000002000EED
:0C000E00787FE4F6D8FD758120020055D3
:10034500C2D530F707B2D563F0FF05F030E70CB240
:10035500D5F4048463F0FF05F080018430D502F400
:02036500042270
:10001A000201E5E493A3F8E493A34003F68001F216
:10002A0008DFF48029E493A3F85407240CC8C333E7
:10003A00C4540F4420C8834004F456800146F6DFB6
:10004A00E4800B0102040810204080900429E47E19
:10005A00019360BCA3FF543F30E509541FFEE493AB
:10006A00A360010ECF54C025E060A840B8E493A372
:10007A00FAE493A3F8E493A3C8C582C8CAC583CA9D
:10008A00F0A3C8C582C8CAC583CADFE9DEE780BE55
:01043F0000BC
:00000001FF
