:04072500D2A07F05DA
:0807290000AE071FEE70F9227B
:0F071600D2A1120725C2A17F05120729C2A02276
:0C073100C2A1120725D2A17F05020729F2
:1006C500C2A0A20692A17F05120729120725C2A082
:0706D500D2A17F05020729F5
:0C067200AB07C2AF1207167F9012060300
:10067E00120725A2A19206C2A07F05120729A20683
:01068E002249
:02060300AD0741
:10060500E4FCC2A07F05120729ED30E704D2A180E2
:1006150002C2A17F05120729D2A0ED25E0FD7F05C5
:090625001207290CBC08DBC2A07D
:01062E0022A9
:10068F00E4FC120725ED25E0FD30A103430501C26F
:0C069F00A07F051207290CBC08E8AF057D
:0106AB00222C
:1006AC001206727F4012060312067EAF0312060377
:0906BC0012067E120731D2AF22B2
:1005D600120672AF0312060312067E1207167F91E9
:1005E60012060312067E12068FAB07C2061206C556
:0D05F60012068FAB07120731D2AFAF032200
:0B073D00E5B0F4FF652F5FF5328F2F51
:01074800228E
:1006520012073DE53230E002B204E53230E102B287
:1006620002E53230E202B201E53230E302B20322A5
:10070400C0F9A4B0999282F8809080402010080427
:020714000201E0
:10062F00083EC0C0C0FFFFFFFFC10833FFFFFFFF41
:10063F00FFFFFF8E013200012F00C104C102C10371
:02064F00C101E7
:1004CC00E4F580E5A0541F44A0F5A053A01F75804F
:1004DC00FFE5A0541F4480F5A053A01F1206F11293
:1004EC0006DC7F661206AC30002A7F031205D67537
:1004FC002B008F2CAE2B7C007D641201A07D33125F
:10050C0001B28E298F2A30010B85292D852A2EAF19
:10051C002C1206AC20010B752D00752EC87F6612AF
:10052C0006ACC2AF1202EBD2AF300505C205120603
:06053C005212001E80B106
:03000B0002000EE2
:0D000E00C0E00547E54770020546D0E0322E
:03001B000204508C
:10045000C0E0C0F0C083C082C0D075D000C000C072
:1004600001C002C003C004C005C006C007053B05AB
:10047000310528E52870020527E531C394FA4005C7
:10048000753100D200C3E52894F4E52794014012A9
:1004900075270075280085463C85473D75460075E3
:1004A0004700E53BC394064005753B00D2051205A5
:1004B00042D007D006D005D004D003D002D001D05E
:0C04C00000D0D0D082D083D0F0D0E03249
:1002EB002002030203B5300308E4F52175220280D6
:1002FB0006752101E4F522C3E52A9496E5299400BD
:10030B005003E4F523C3E52A9496E5299400400DA8
:10031B00E52A94FAE52994005003752304C3E52AD2
:10032B0094FAE5299400400DE52A945EE5299401A1
:10033B005003E4F523C3E52A945EE52994014003B9
:10034B00752304C3E53D94E8E53C94035003E4F5C1
:10035B0024C3E53D94E8E53C9403400DE53D9488CA
:10036B00E53C94135003752408C3E53D9488E53CA4
:10037B009413400DE53D9410E53C94275003E4F5B0
:10038B0024C3E53D9410E53C9427400375240820D5
:10039B000103E4F525300103752510E521452245C0
:1003AB002345244525F4F58080037580FFE5A05493
:0803BB001F4480F5A053A01FB0
:0103C3002217
:100542007580FFE5A0541F44E0F5A053A01FE526E7
:1005520090070E93F580E5A0541F44C0F5A053A068
:100562001F30041130030474338002743E2526F8D0
:10057200E6F58080037580FFE5A0541F44E0F5A0F6
:0F05820053A01F0526E526C394084003E4F52681
:010591002247
:10001E0020040302019F200303020144AE3CAF3DC6
:10002E007C007D0A1201B274042DF58274073CF532
:10003E0083E493F533C3E53D940AE53C9400500503
:10004E007534FF8020AE3CAF3D7C007D0A1201B2BC
:10005E007C007D0A1201B274042DF58274073CF502
:10006E0083E493F534C3E53D9464E53C9400500578
:10007E007535FF8020AE3CAF3D7C007D641201B231
:10008E007C007D0A1201B274042DF58274073CF5D2
:10009E0083E493F535C3E53D94E8E53C94035005C0
:1000AE007536FF8020AE3CAF3D7C037DE81201B279
:1000BE007C007D0A1201B274042DF58274073CF5A2
:1000CE0083E493F536C3E53D9410E53C9427500543
:1000DE007537FF8020AE3CAF3D7C277D101201B2FC
:1000EE007C007D0A1201B274042DF58274073CF572
:1000FE0083E493F537AE3CAF3DE4FCFD7BA07A86FE
:10010E007901F8C312020740047538FF22AE3CAFE6
:10011E003DE4FCFD7BA07A867901F8120592E47B22
:10012E000AFAF9F812059274042BF58274073AF55F
:10013E0083E493F53822AE2DAF2E7C007D0A12019A
:10014E00B274042DF58274073CF583E493F53EAE4C
:10015E002DAF2E7C007D0A1201B27C007D0A1201A9
:10016E00B274042DF58274073CF583E493F53FAE2B
:10017E002DAF2E7C007D641201B27C007D0A12012F
:10018E00B274042DF58274073CF583E493547FF525
:02019E004022FD
:1006F100438E80438904758CFF758AFFD28CD2A901
:03070100D2AF2252
:1006DC00438E4053890F758B40758DA2C28FD28E7D
:0506EC00D2ABD2AF22E9
:030000000203C434
:0C03C400787FE4F6D8FD75814702040B39
:1001A000EF8DF0A4A8F0CF8CF0A428CE8DF0A42E73
:0201B000FE222D
:1001B200BC000BBE0029EF8DF084FFADF022E4CC31
:1001C200F875F008EF2FFFEE33FEEC33FCEE9DECFA
:1001D200984005FCEE9DFE0FD5F0E9E4CEFD22ED40
:1001E200F8F5F0EE8420D21CFEADF075F008EF2F8A
:1001F200FFED33FD4007985006D5F0F222C398FD7B
:050202000FD5F0EA2217
:10059200C2D5E830E70FB2D5E4C39BFBE49AFAE494
:1005A20099F9E498F8EC30E717B2D51205C81202AF
:1005B20059E4C39BFBE49AFAE499F9E498F88003BE
:1005C20012025930D50DE4C39FFFE49EFEE49DFD67
:0405D200E49CFC2287
:10020700EB9FF5F0EA9E42F0E99D42F0EC6480C86E
:0602170064809845F0220E
:1003D0000204CCE493A3F8E493A34003F68001F273
:1003E00008DFF48029E493A3F85407240CC8C3332E
:1003F000C4540F4420C8834004F456800146F6DFFD
:10040000E4800B010204081020408090062FE47E57
:10041000019360BCA3FF543F30E509541FFEE493F1
:10042000A360010ECF54C025E060A840B8E493A3B8
:10043000FAE493A3F8E493A3C8C582C8CAC583CAE3
:10044000F0A3C8C582C8CAC583CADFE9DEE780BE9B
:0106510000A8
:10021D0075F008758200EF2FFFEE33FECD33CDCC98
:10022D0033CCC58233C5829BED9AEC99E58298401B
:10023D000CF582EE9BFEED9AFDEC99FC0FD5F0D6F8
:10024D00E4CEFBE4CDFAE4CCF9A88222B800C1B922
:10025D000059BA002DEC8BF084CFCECDFCE5F0CB60
:10026D00F97818EF2FFFEE33FEED33FDEC33FCEB99
:10027D0033FB10D703994004EB99FB0FD8E5E4F954
:10028D00FA227818EF2FFFEE33FEED33FDEC33FC41
:10029D00C933C910D7059BE99A4007EC9BFCE99A35
:1002AD00F90FD8E0E4C9FAE4CCFB2275F010EF2F7A
:1002BD00FFEE33FEED33FDCC33CCC833C810D7077A
:1002CD009BEC9AE899400AED9BFDEC9AFCE899F8B5
:0E02DD000FD5F0DAE4CDFBE4CCFAE4C8F92248
:00000001FF
