:1005C4000A43C0F9A4B0999282F88090084E804002
:1005D400201008040201013D32013F3B013E170196
:1005E40023000126000124000142000133000141DF
:1005F40000012700012200012800C102C100C1013D
:10050500E4F580E5A0541F44A0F5A053A01F758015
:10051500FFE5A0541F4480F5A053A01FE4F5081281
:1005250006058F341207C50508E508C3940A40EF90
:10053500120641120778300307C2031206058F34ED
:10054500300405C20412026130001C300507C2AF39
:100555007580FE8005C2AF7580FFE5A0541F4480FD
:10056500F5A053A01FD2AF12000EE54170C8E527D4
:0705750070C412074880BFAB
:03000B000203C924
:1003C900C0E0C0F0C083C082C0D075D000C000C0FA
:1003D90001C002C003C004C005C006C0070540052E
:1003E9004D052AE52A700205290522E540C394FA3C
:1003F9004005754000D203E54DC394064005754D8F
:1004090000D204C3E52A94F4E52994014009752929
:1004190000752A006325FF200211E53DB5230CE58F
:100429003FB52607E53EB52402D200E522C3946410
:100439004020752200B2050528E52894194013C209
:1004490000752800E5A0541F4480F5A07580FF536E
:10045900A01F12057CD007D006D005D004D003D048
:1004690002D001D000D0D0D082D083D0F0D0E032F9
:10057C007580FFE5A0541F44E0F5A053A01F744EF6
:10058C002521F8E6F580E5A0541F44C0F5A053A042
:10059C001F30010474358002742B2521F8E6F58098
:1005AC00E5A0541F44E0F5A053A01F0521E521C38D
:0705BC0094084003E4F5215F
:0105C3002215
:10000E003002030201C83001030201C8E5417063EA
:10001E00E53D75F00A1206D4AFF074432FF8E6F5FD
:10002E002BE53D75F00A1206D42443F8E6F52C753F
:10003E002DBFE53F75F00A1206D4AFF074432FF8CA
:10004E00E6F52EE53F75F00A1206D42443F8E6F5E0
:10005E002F7530BFE53E75F00A1206D4AFF074432B
:10006E002FF8E6F531E53E75F00A1206D42443F872
:10007E00E6F532E54164017067E53D75F00A12065A
:10008E00D4AFF074432FF8E6F52BE53D75F00A1268
:10009E0006D42443F8E6F52C752DBFE53F75F00A1E
:1000AE001206D4AFF074432FF8E6F52EE53F75F047
:1000BE000A1206D42443F8E6F52F7530BFE53E75D7
:1000CE00F00A1206D4AFF074432FF8E64525F53149
:1000DE00E53E75F00A1206D42443F8E64525F532BE
:1000EE00E54164027067E53D75F00A1206D4AFF083
:1000FE0074432FF8E6F52BE53D75F00A1206D4246D
:10010E0043F8E6F52C752DBFE53F75F00A1206D4BF
:10011E00AFF074432FF8E64525F52EE53F75F00A4E
:10012E001206D42443F8E64525F52F7530BFE53E7B
:10013E0075F00A1206D4AFF074432FF8E6F531E5E8
:10014E003E75F00A1206D42443F8E6F532E5416412
:10015E00037067E53D75F00A1206D4AFF074432FB5
:10016E00F8E64525F52BE53D75F00A1206D4244335
:10017E00F8E64525F52C752DBFE53F75F00A1206FC
:10018E00D4AFF074432FF8E6F52EE53F75F00A1262
:10019E0006D42443F8E6F52F7530BFE53E75F00A18
:1001AE001206D4AFF074432FF8E6F531E53E75F044
:1001BE000A1206D42443F8E6F532300266200163B3
:1001CE00E52375F00A1206D4AFF074432FF8E6F566
:1001DE002BE52375F00A1206D42443F8E6F52C75A8
:1001EE002DBFE52675F00A1206D4AFF074432FF832
:1001FE00E6F52EE52675F00A1206D42443F8E6F548
:10020E002F7530BFE52475F00A1206D4AFF0744393
:10021E002FF8E6F531E52475F00A1206D42443F8DA
:10022E00E6F53230012C7535C6E53475F00A847466
:10023E004325F0F8E6F536E53475F00A842443F8E4
:10024E00E6F5377538FF7539FF753AFF753BFF7563
:03025E003CFF2240
:10077800438E805389F0758A40758CA2C28DD28CC5
:05078800D2A9D2AF224E
:0E07C50000007F057E907D47DDFEDEFCDFFA42
:0107D3002203
:0B07D400E5B0F4FF65335FF5428F33A2
:0107DF0022F7
:100261001207D4E542540F70030203AE300015C2E9
:1002710000E4F528F5227580FFE5A0541F4480F5C0
:10028100A053A01FE54230E01220020F0541E541D5
:10029100C394044006E4F541120641E54230E113FE
:1002A100D20230020E0527E527C394044005E4F588
:1002B10027C202E54230E278200239E541B4010E5D
:1002C100053ED3E53E648094974003753E17E541B2
:1002D100B4020E053FD3E53F648094BB4003753FF4
:1002E1003BE541B4030E053DD3E53D648094BB403D
:1002F10003753D3B300239E527B4010E0524D3E5F2
:1003010024648094974003752417E527B4020E05F1
:1003110026D3E526648094BB400375263BE527B4CC
:10032100030E0523D3E523648094BB400375233B6F
:10033100E54230E378200239E541B4010E153EC3B0
:10034100E53E648094805003E4F53EE541B4020E3D
:10035100153FC3E53F648094805003E4F53FE541D8
:10036100B4030E153DC3E53D648094805003E4F56C
:100371003D300239E527B4010E1524C3E52464801C
:1003810094805003E4F524E527B4020E1526C3E555
:1003910026648094805003E4F526E527B4030E1506
:1003A10023C3E523648094805003E4F523E53330CF
:1003B100E30BE5417011E527700DD20122E5417093
:0803C10006E5277002C20122CB
:040714007F057E00DF
:10071800EF1FAA0670011E4A600BE4FDEDD3940C8E
:0507280050EE0D80F70A
:01072D0022A9
:0206F600A90752
:1006F800E4FBC294E9139294120714D294E9C31349
:0C070800F90BBB08ED7F057E000207180E
:10072E00E4FBC294ECC313FCD294309403430480D4
:09073E001207140BBB08EBAF0419
:01074700228F
:1006AD00C206D2947F0C7E00120718C2947F507E32
:1006BD0000120718D2947F0A7E00120718A2949296
:0606CD0006120714A2064C
:0106D3002204
:100605001206AD7FCC1206F67F441206F67FC87E31
:10061500001207181206AD7FCC1206F67FBE120631
:10062500F67FC87E0012071812072EA90712072E9B
:0B063500E9C4540FF9EFC454F049FF72
:010640002297
:1007A100E4FEC297EF1392A3EFC313FFD2970EBEDD
:0207B10008F04E
:0107B3002223
:10078D00C29300C29700D293001207A1AF051207C2
:04079D00A1C2932240
:10067900E4FDC29300C29700D293001207A1E4FFE0
:10068900C297EDC313FD30A303430580D2970FBF73
:1006990008EEC29300C29700D29700C2A300D2A36A
:0306A90000AF059A
:0106AC00222B
:10076100EF75F00A84C454F0FEEF75F00A84AFF01F
:0607710053070FEE4FFFDD
:01077700225F
:0307B400120679B1
:0D07B700EFC4540F53070F75F00AA42FFF75
:0107C4002212
:10064100AF3D1207618F3DAF3F1207618F3FAF3E54
:100651001207618F3EE4FD7F8E12078DAD3D7F80D5
:1006610012078DAD3F7F8212078DAD3E7F84120749
:080671008D7D807F8E02078D54
:100748007F811207B48F3D7F831207B48F3F7F8567
:080758001206791207B78F3E6B
:010760002276
:030000000204797E
:0C047900787FE4F6D8FD7581550204C0C0
:1006D400C2D530F707B2D563F0FF05F030E70CB2AE
:1006E400D5F4048463F0FF05F080018430D502F46E
:0206F4000422DE
:10048500020505E493A3F8E493A34003F68001F283
:1004950008DFF48029E493A3F85407240CC8C33378
:1004A500C4540F4420C8834004F456800146F6DF47
:1004B500E4800B01020408102040809005C4E47E0E
:1004C500019360BCA3FF543F30E509541FFEE4933C
:1004D500A360010ECF54C025E060A840B8E493A303
:1004E500FAE493A3F8E493A3C8C582C8CAC583CA2E
:1004F500F0A3C8C582C8CAC583CADFE9DEE780BEE6
:0106040000F5
:00000001FF
