:0B0AEC00E5B0F4FF652A5FF52E8F2AAD
:010AF70022DC
:1008A700120AECE52E30E006852428852529E52A5D
:1008B70030E004D2018002C201E52E30E106853C1A
:1008C70037853D38E52E30E212E53EB40105753E29
:1008D700038008E53EB40303753E01E52E30E314BB
:1008E700052DE52DC394034003E4F52DE52DB40252
:0508F70003753E012223
:100ACB00C0F9A4B0999282F880908040201008045D
:020ADB00020116
:1008FC00082FFFFFFFFFFFFFFF8E083FFFFFFFFFEB
:10090C00FFFFFFC80847C0C0C0FFFFC0BFC1012E1A
:10091C0000012A00012D00013E0002240000023AD1
:10092C000000023C00000228000002370000C10158
:04093C00C103C10230
:10067200E4FD7F051209C97DFF7F041209C9120A30
:100682008D120AA2AE24AF25AB07AA06E4F9F87FC1
:10069200407E427D0FFC1209418E268F27300405D1
:1006A200C2041208A7300071C2007F011209FEAC19
:1006B20007E41204648F548E538D528C51120498A5
:1006C2007C007D64120519AC06AD07E412045FE4F8
:1006D200FBFA794C78421203BD1204988E3A8F3B92
:1006E200120B107F031209FEAC07E41204648F544C
:1006F2008E538D528C511204987C007D6412051920
:10070200AC06AD07E412045FE4FBFA794C784212BE
:1007120003BD1204988E3C8F3D12084612001E0241
:02072200068649
:03000B0002000EE2
:0D000E00C0E00550E5507002054FD0E03213
:03001B00020724B5
:10072400C0E0C0F0C083C082C0D075D000C000C09B
:1007340001C002C003C004C005C006C007053905D6
:1007440023E52370020522E539C394064005753973
:1007540000D204C3E52394F4E522940140147522E5
:1007640000752300854F24855025754F0075500072
:10077400D20030010A052CE52C700A052B80067581
:100784002B00752C00C3E52C94F4E52B9401400850
:10079400752B00752C00B202120985D007D006D043
:1007A40005D004D003D002D001D000D0D0D082D064
:0607B40083D0F0D0E0321A
:100846007508FFC3E53D9538E53C953750055308D7
:10085600FE8003430801D3E5259529E52495284024
:10086600055308FD8003430802E52D70055308FB78
:100876008003430804E52DB401055308F7800343BC
:100886000808E52DB402055308EF8003430810203D
:10089600010E3002047DFF8002AD087F041209C9F3
:0108A600222F
:100985007DFF7F071209C9E521900AD593FD7F06F2
:100995001209C9E52D7005742F1209C2E52DB401A0
:1009A50005743F1209C2E52DB4020574471209C248
:0C09B5000521E521C394084003E4F5216E
:0109C1002213
:10001E00E52D600302017FAE24AF25FC7D0A12059B
:10002E002B74CB2DF582740A3CF583E493F52FC324
:10003E00E525940AE524940050057530FF8020AE26
:10004E0024AF257C007D0A12052B7C007D0A12054B
:10005E002B74CB2DF582740A3CF583E493F530C3F3
:10006E00E5259464E524940050057531FF8020AE9B
:10007E0024AF257C007D6412052B7C007D0A1205C1
:10008E002B74CB2DF582740A3CF583E493F531C3C2
:10009E00E52594E8E524940350057532FF8020AEE3
:1000AE0024AF257C037DE812052B7C007D0A12050A
:1000BE002B74CB2DF582740A3CF583E493F532C391
:1000CE00E5259410E524942750057533FF8020AE66
:1000DE0024AF257C277D1012052B7C007D0A12058E
:1000EE002B74CB2DF582740A3CF583E493F533AE75
:1000FE0024AF25E4FCFD7BA07A867901F8D31205A6
:10010E008E40057534FF8028AE24AF25E4FCFD7BC0
:10011E00A07A867901F8120941E47B0AFAF9F812FD
:10012E00094174CB2BF582740A3AF583E493F534C6
:10013E00AE24AF25E4FCFD7B407A42790FF8D31252
:10014E00058E40057535FF8028AE24AF25E4FCFDF5
:10015E007B407A42790FF8120941E47B0AFAF9F8EA
:10016E0012094174CB2BF582740A3AF583E493F5A8
:10017E0035E52D640160030202E2AE26AF27FC7D59
:10018E000A12052B74CB2DF582740A3CF583E49389
:10019E00F53FC3E527940AE526940050057540FF08
:1001AE008020AE26AF277C007D0A12052B7C007DB9
:1001BE000A12052B74CB2DF582740A3CF583E49359
:1001CE00F540C3E5279464E526940050057541FF7C
:1001DE008020AE26AF277C007D6412052B7C007D2F
:1001EE000A12052B74CB2DF582740A3CF583E49329
:1001FE00F541C3E52794E8E526940350057542FFC3
:10020E008020AE26AF277C037DE812052B7C007D77
:10021E000A12052B74CB2DF582740A3CF583E493F8
:10022E00F542C3E5279410E526942750057543FF44
:10023E008020AE26AF277C277D1012052B7C007DFB
:10024E000A12052B74CB2DF582740A3CF583E493C8
:10025E00F543AE26AF27E4FCFD7BA07A867901F844
:10026E00D312058E40057544FF8028AE26AF27E4D5
:10027E00FCFD7BA07A867901F8120941E47B0AFA2B
:10028E00F9F812094174CB2BF582740A3AF583E41E
:10029E0093F544AE26AF27E4FCFD7B407A42790FFE
:1002AE00F8D312058E40057545FF8028AE26AF2780
:1002BE00E4FCFD7B407A42790FF8120941E47B0A97
:1002CE00FAF9F812094174CB2BF582740A3AF583C8
:1002DE00E493F545E52D640260030203B9E53E643F
:1002EE00017061AE3AAF3BFC7D0A12052B74CB2D2B
:1002FE00F582740A3CF583E493F547AE3AAF3B7C46
:10030E00007D0A12052B7C007D0A12052B74CB2D65
:10031E00F582740A3CF583E493F548AE3AAF3B7C24
:10032E00007D6412052B7C007D0A12052B74CB2DEB
:10033E00F582740A3CF583E493547FF549900ACC18
:10034E00E493F54CE53E64037061AE3CAF3DFC7D3D
:10035E000A12052B74CB2DF582740A3CF583E493B7
:10036E00F547AE3CAF3D7C007D0A12052B7C007D2F
:10037E000A12052B74CB2DF582740A3CF583E49397
:10038E00F548AE3CAF3D7C007D6412052B7C007DB4
:10039E000A12052B74CB2DF582740A3CF583E49377
:0C03AE00547FF549900ACEE493F54C22F0
:0709C2002521F8E6FD7F0787
:1009C900EF24FB601214601714601C24037025E5E2
:1009D900A0541F44808016E5A0541F44A0800EE552
:1009E900A0541F44C08006E5A0541F44E0F5A08D23
:0509F9008053A01F2245
:100A8D00438E80438904758AFF758CFFC28DD28C8D
:050A9D00D2A9D2AF2236
:100AA200438E4053890F758B40758DA2C28FD28EB3
:050AB200D2ABD2AF221F
:080B10007F3B7E5ADEFEDFFC94
:010B180022BA
:040AF800D2A07F0504
:080AFC0000AE071FEE70F922A5
:0F0ADD00D2A1120AF8C2A17F05120AFCC2A02200
:0C0B0400C2A1120AF8D2A17F05020AFC6F
:100A7600C2A0A20592A17F05120AFC120AF8C2A022
:070A8600D2A17F05020AFC6A
:030AB700120A2DF3
:100ABA00120AF8A2A19205C2A07F05120AFCA20599
:010ACA002209
:020A2D00AD0713
:100A2F00E4FCC2A07F05120AFCED30E704D2A180DE
:100A3F0002C2A17F05120AFCD2A0ED25E0FD7F05C1
:090A4F00120AFC0CBC08DBC2A079
:010A5800227B
:100A5900E4FC120AF8ED25E0FD30A103430501C2CB
:0C0A6900A07F05120AFC0CBC08E8AF05D9
:010A7500225E
:1009FE00AB07120ADD7F90120AB7AF03120AB712C5
:100A0E000ADD7F91120A2D120ABA120A59AB07C2D9
:0F0A1E0005120A76120A59AB07120B04AF032216
:1003BA0002050EEC5D046005E859047003020504A9
:1003CA001204CF580460F6EC4860F2EC7004FDFEAB
:1003DA00FF22C860DB2481C85009C3986002500616
:1003EA0002050B9850CAF582E9294B4A7005AB827F
:1003FA000204FA75F0007C1A7880C3EF9BEE9AED3E
:10040A0099400DC3EF9BFFEE9AFEED99FDE842F08D
:10041A00DC23ACF0D0E0FFD0E0FED0E0FDAB8220E0
:10042A00E7101BEB60BAEC2CFCEF33FFEE33FEED6A
:10043A0033FD0204E6E803F830E705C0F075F00082
:10044A00EF2FFFEE33FEED33FD40B830E7C280AA4E
:10045A0075F020800E75F010800575F0087D007E1D
:10046A00007F003392D530D503120580EC3340105B
:10047A00EF33FFEE33FEED33FDEC33FCD5F0ED2226
:0E048A00E5F0247EA2D513CC92E7CDCEFF2262
:10049800EDD2E7CD33EC3392D524814006E4FFFE5C
:1004A800FDFC22FCE4CFCECDCC24E0501174FF80BB
:1004B800EDC3CC13CCCD13CDCE13CECF13CF047058
:0704C800F030D5DE020580D3
:1004CF00E9D2E7C933E833F892D5EDD2E7CD33EC73
:0704DF0033FC5002B2D522EC
:1004E600EC30E7100FBF000C0EBE00080DBD000477
:1004F6000BEB6014A2D5EB13FCED92E7FD2274FF23
:10050600FCFDFEFF22E480F8A2D574FF13FC7D807B
:03051600E480EF8F
:030000000207BA3A
:0C07BA00787FE4F6D8FD75815402080138
:10051900EF8DF0A4A8F0CF8CF0A428CE8DF0A42EF6
:02052900FE22B0
:10052B00BC000BBE0029EF8DF084FFADF022E4CCB4
:10053B00F875F008EF2FFFEE33FEEC33FCEE9DEC7D
:10054B00984005FCEE9DFE0FD5F0E9E4CEFD22EDC3
:10055B00F8F5F0EE8420D21CFEADF075F008EF2F0D
:10056B00FFED33FD4007985006D5F0F222C398FDFE
:05057B000FD5F0EA229B
:10094100C2D5E830E70FB2D5E4C39BFBE49AFAE4E1
:1009510099F9E498F8EC30E717B2D5120977120546
:10096100E0E4C39BFBE49AFAE499F9E498F8800384
:100971001205E030D50DE4C39FFFE49EFEE49DFD2A
:04098100E49CFC22D4
:0E058000C3E49FFFE49EFEE49DFDE49CFC228C
:10058E00EB9FF5F0EA9E42F0E99D42F0EC6480C8E4
:06059E0064809845F02284
:1007C600020672E493A3F8E493A34003F68001F2D1
:1007D60008DFF48029E493A3F85407240CC8C33334
:1007E600C4540F4420C8834004F456800146F6DF03
:1007F600E4800B01020408102040809008FCE47E8F
:10080600019360BCA3FF543F30E509541FFEE493F7
:10081600A360010ECF54C025E060A840B8E493A3BE
:10082600FAE493A3F8E493A3C8C582C8CAC583CAE9
:10083600F0A3C8C582C8CAC583CADFE9DEE780BEA1
:0109400000B6
:1005A40075F008758200EF2FFFEE33FECD33CDCC0E
:1005B40033CCC58233C5829BED9AEC99E582984091
:1005C4000CF582EE9BFEED9AFDEC99FC0FD5F0D66E
:1005D400E4CEFBE4CDFAE4CCF9A88222B800C1B998
:1005E4000059BA002DEC8BF084CFCECDFCE5F0CBD6
:1005F400F97818EF2FFFEE33FEED33FDEC33FCEB0F
:1006040033FB10D703994004EB99FB0FD8E5E4F9C9
:10061400FA227818EF2FFFEE33FEED33FDEC33FCB6
:10062400C933C910D7059BE99A4007EC9BFCE99AAA
:10063400F90FD8E0E4C9FAE4CCFB2275F010EF2FEF
:10064400FFEE33FEED33FDCC33CCC833C810D707EF
:100654009BEC9AE899400AED9BFDEC9AFCE899F82A
:0E0664000FD5F0DAE4CDFBE4CCFAE4C8F922BD
:00000001FF
