:0B075000E5B0F4FF652F5FF5338F2F3D
:01075B00227B
:1006EB00120750E53330E007D203E4F531F532E57C
:0906FB003330E104C203B2012214
:10062B000A34C0F9A4B0999282F88090083F8040B8
:10063B00201008040201022200320247000001339D
:0C064B0000012F0002310000C103C101BA
:1003E400E5A0541F44A0F5A0E4F58053A01FE5A0A8
:1003F400541F4480F5A07580FF53A01F12071B30C3
:10040400026FC2027F011207307F01120658AC0747
:10041400E41201BE8F4C8E4B8D4A8C49E4FFFE7D65
:10042400C87C42AB4CAA4BA94AA84912000EE4FB73
:10043400FA794C78421201171201F28E2C8F2DC3D7
:10044400E52D947DE52C9400500EE5A0541F4480C6
:10045400F5A07580FE53A01FD3E52D947DE52C9463
:1004640000400EE5A0541F4480F5A07580FF53A002
:100474001F30030EE5A0541F44A0F5A0758010534F
:10048400A01F20030EE5A0541F44A0F5A0E4F580AE
:1004940053A01F30000DC20074642532F532E435D8
:1004A40031F531C3E532940FE53194274012E5A0CC
:1004B400541F44A0F5A0E4F58053A01FC203D20149
:1004C400E531C313F547E53213F548300405C2049A
:0904D4001206EB1202D602040329
:03000B0002056982
:10056900C0E0C0F0C083C082C0D075D000C000C058
:1005790001C002C003C004C005C006C007053EE5AE
:100589003EC394064005753E00D2040530E530C3EC
:1005990094964005753000D202052EE52EC394329B
:1005A9004008300305752E00D2001205D1D007D0BE
:1005B90006D005D004D003D002D001D000D0D0D0CD
:0805C90082D083D0F0D0E032B3
:1005D100E5A0541F44E0F5A07580FF53A01FE5A0DE
:1005E100541F44C0F5A0743F2521F8E6F58053A0BF
:1005F1001F200113E5A0541F44E0F5A07424252118
:10060100F8E6F58053A01F300113E5A0541F44E024
:10061100F5A074242521F8E6F58053A01F0521E5F6
:0906210021C394084003E4F52113
:01062A0022AD
:1002D600AE22AF237C007D0A12027374342DF8E639
:1002E600F528AE22AF237C007D0A1202737C007DC6
:1002F6000A12027374342DF8E6F529AE22AF237C78
:10030600007D641202737C007D0A12027374342D20
:10031600F8E6547FF52A752BFF20015FAE31AF3228
:100326007C007D0A12027374342DF8E6F524AE3192
:10033600AF327C007D0A1202737C007D0A120273C2
:1003460074342DF8E6F525AE31AF327C007D6412AB
:1003560002737C007D0A12027374342DF8E6547F12
:10036600F526AE31AF327C037DE81202737C007D48
:100376000A12027374342DF8E6F52730015FAE4792
:10038600AF487C007D0A12027374342DF8E6F5241A
:10039600AE47AF487C007D0A1202737C007D0A12CC
:1003A600027374342DF8E6F525AE47AF487C007D20
:1003B600641202737C007D0A12027374342DF8E60F
:1003C600547FF526AE47AF487C037DE81202737C66
:0E03D600007D0A12027374342DF8E6F527221A
:10071B00438E805389F0758A40758CA2C28DD28C22
:05072B00D2A9D2AF22AB
:04075C00D2A07F05A3
:0807600000AE071FEE70F92244
:0F074100D2A112075CC2A17F05120760C2A022DD
:0C076800C2A112075CD2A17F050207604D
:10070400C2A0A20592A17F0512076012075CC2A0D5
:07071400D2A17F050207607E
:0C06B100AB07C2AF1207417F9012068514
:1006BD0012075CA2A19205C2A07F05120760A205D8
:0106CD00220A
:02068500AD07BF
:10068700E4FCC2A07F05120760ED30E704D2A18029
:1006970002C2A17F05120760D2A0ED25E0FD7F050C
:0906A7001207600CBC08DBC2A0C4
:0106B0002227
:1006CE00E4FC12075CED25E0FD30A103430501C2F9
:0C06DE00A07F051207600CBC08E8AF0507
:0106EA0022ED
:100730001206B1AF031206851206BD120768D2AFCA
:010740002296
:100658001206B1AF031206851206BD1207417F913B
:100668001206851206BD1206CEAB07C20512070494
:0D0678001206CEAB07120768D2AFAF032207
:10000E00EC4D6011E8497017ED33EC3304600DE4EC
:10001E00FCFFFEFD22E933E8330470F802025E12A3
:10002E00022958046009E4CC2481500628500902A4
:10003E000268284003020265C0E0EB4A7044B980B2
:10004E0006D0E0FB020254EF4E701CBD8008EBFFA1
:10005E00EAFEE9FD80EBE98DF0A4FEE5F00200F783
:10006E00E9CDF9EAFEEBFFEF89F0A4FCE5F0CE89CD
:10007E00F0A42EFFE435F0CD89F0A42DFEE435F08A
:10008E008067EF4E7005BD80D780C3EF8BF0A4ACB8
:10009E00F0EE8BF0A42CFCE435F0F8EF8AF0A42CF3
:1000AE00E5F038FCE433CB8DF0A42CFCE5F03BF806
:1000BE00EE8AF0A42CFCE5F038F8E433CF89F0A4F6
:1000CE002CFCE5F038CF3400CE89F0A42FFFE5F0FC
:1000DE003EFEE433C98DF0A42EFEE5F039CD8AF054
:1000EE00A42FFFE5F03EFEE43DFD33D0E0FB5007CC
:1000FE000BBB000F020268EC2CFCEF33FFEE33FE5D
:06010E00ED33FD0202408A
:10011400020268EC5D046005E85904700302025EA3
:10012400120229580460F6EC4860F2EC7004FDFEFB
:10013400FF22C860DB2481C85009C39860025006BE
:100144000202659850CAF582E9294B4A7005AB82D0
:1001540002025475F0007C1A7880C3EF9BEE9AED8E
:1001640099400DC3EF9BFFEE9AFEED99FDE842F036
:10017400DC23ACF0D0E0FFD0E0FED0E0FDAB822089
:10018400E7101BEB60BAEC2CFCEF33FFEE33FEED13
:1001940033FD020240E803F830E705C0F075F000D3
:1001A400EF2FFFEE33FEED33FD40B830E7C280AAF7
:1001B40075F020800E75F010800575F0087D007EC6
:1001C400007F003392D530D5031202C8EC334010BF
:1001D400EF33FFEE33FEED33FDEC33FCD5F0ED22CF
:0E01E400E5F0247EA2D513CC92E7CDCEFF220B
:1001F200EDD2E7CD33EC3392D524814006E4FFFE05
:10020200FDFC22FCE4CFCECDCC24E0501174FF8063
:10021200EDC3CC13CCCD13CDCE13CECF13CF047000
:07022200F030D5DE0202C836
:10022900E9D2E7C933E833F892D5EDD2E7CD33EC1B
:0702390033FC5002B2D52294
:10024000EC30E7100FBF000C0EBE00080DBD00041F
:100250000BEB6014A2D5EB13FCED92E7FD2274FFCB
:10026000FCFDFEFF22E480F8A2D574FF13FC7D8024
:03027000E480EF38
:030000000204DD1A
:0C04DD00787FE4F6D8FD75814C02052400
:10027300BC000BBE0029EF8DF084FFADF022E4CC6F
:10028300F875F008EF2FFFEE33FEEC33FCEE9DEC38
:10029300984005FCEE9DFE0FD5F0E9E4CEFD22ED7E
:1002A300F8F5F0EE8420D21CFEADF075F008EF2FC8
:1002B300FFED33FD4007985006D5F0F222C398FDB9
:0502C3000FD5F0EA2256
:0E02C800C3E49FFFE49EFEE49DFDE49CFC2247
:1004E9000203E4E493A3F8E493A34003F68001F242
:1004F90008DFF48029E493A3F85407240CC8C33314
:10050900C4540F4420C8834004F456800146F6DFE2
:10051900E4800B010204081020408090062BE47E41
:10052900019360BCA3FF543F30E509541FFEE493D7
:10053900A360010ECF54C025E060A840B8E493A39E
:10054900FAE493A3F8E493A3C8C582C8CAC583CAC9
:10055900F0A3C8C582C8CAC583CADFE9DEE780BE81
:0106570000A2
:00000001FF
